:06000000803144280000DD
:08000800830180312000200873
:10001000A4002108A5002208A6002308A700850146
:1000200091308400801E1628911A1F282408A000F1
:100030002508A1002608A2002708A30009009112A4
:10004000803116288008031935280508AC000408FB
:10005000AB000008111E2A2823009A0020002C085B
:1000600085002B088400013122280800111E362843
:1000700023009A00803120007F28111E3D28230094
:100080009A008031200081286A30210099002200E6
:100090001D159D1723009F1119309B00A6309E004F
:1000A00090309D009F1119309B00A6309E0090302B
:1000B0009D002000A801A90123008C018E012200CF
:1000C000920191019401930121009116C0308B049B
:1000D0008501013084002000222085010230840047
:1000E0002220911E7128230019082000A800911ECB
:1000F0007728230019082000A90029083628280895
:060100003D287128630098
:020000040001F9
:04000E00843DFF1A14
:00000001FF
;PIC16F1823
;CRC=51D1  CREATED="18-nov-20 17:04"
