:100000008031532800002618092822000C110B28E3
:10001000200022000C1521000C112000A618142825
:1000200022000E101628200022000E1421000E10AF
:10003000200026191F2822008E10212820002200CF
:100040008E1421008E102000A6192A2822000E11DD
:100050002C28200022000E1521000E112000261A47
:10006000352822008E113728200022008E1521000D
:100070008E118031200063282030850007308400F5
:100080000008031951280130A100A001A00B462847
:10009000A10B45284A30A000A00B4C284F28800B0C
:1000A0004328803169286A302100990023008C019F
:1000B0008E01220092019101940193012000A5017B
:1000C0002508A6000328A50A0230A600FA30A700DA
:1000D0003C28A60B662821000C10013022008C065B
:0600E0002000602863000F
:020000040001F9
:04000E00843DFF1A14
:00000001FF
;PIC16F1823
;CRC=A532  CREATED="24-nov-20 16:33"
