:06000000803177280000AA
:08000800830180312000200873
:10001000A4002108A5002208A6002308A700850146
:1000200091308400001C162811181F282408A000F5
:100030002508A1002608A2002708A3000900A80B94
:100040002528A90A0230A8002C142908053C031D04
:100050002C28A901AA0AAC142A083C3C031D332809
:10006000AA01AB0A2C152B083C3C0319AB019601E5
:10007000CF3097002C3096001110803116282A08B6
:10008000B000B101AF0803194F2821008C122200E3
:100090008C1221000C1222000C165728200021007F
:1000A0000C1222000C1221008C1222008C1620004F
:1000B0003108043C031C642830082A020319632811
:1000C0002A08B000B10A582821000C1222000C1294
:1000D00021008C1222008C1221000C1022000C1026
:1000E00021008C1022008C1080312000DA286A3028
:1000F000210099002000A801A901AA01AB012C1040
:10010000AC102C11AC1123008C0122009201910142
:1001100020002D10AD100B138B138B1B8C2821008E
:10012000911622009D113530200098009901210080
:10013000111420009601970196010230A800C030EA
:100140008B0421008C1222008C1221000C12220040
:100150000C1221008C1520008C1DB92821000C15D3
:1001600020000C19B92821008C1022008C142000CA
:100170002D1421008C1520008C19C92821000C1584
:1001800020000C1DC92821008C1022008C1020009A
:100190002D10A001AD1820142D08200601390319D7
:1001A000DA28AD102D18AD1400302D180130AE0036
:1001B000AF003F28AC1CE328AC1021000C1001302C
:0C01C00022008C0620002200A928630009
:020000040001F9
:04000E008439FF1E14
:00000001FF
;PIC12F1822
;CRC=DF4D  CREATED="16-nov-20 21:58"
