:0600000080318F28000092
:08000800830180312000200873
:10001000A4002108A5002208A6002308A700850146
:1000200091308400001C162811181F282408A000F5
:100030002508A1002608A2002708A3000900A80B94
:100040002528A90A0230A8002C142908053C031D04
:100050002C28A901AA0AAC142A083C3C031D332809
:10006000AA01AB0A2C152B083C3C0319AB019601E5
:10007000CF3097002C309600111080311628203098
:100080008500113084000008031954280130A100B4
:10009000A001A00B4928A10B48284A30A000A00BC2
:1000A0004F285228800B46288031DE282A08B100CC
:1000B000B2013008023C031D672821008C12220087
:1000C0008C1221000C1222000C166F282000210037
:1000D0000C1222000C1221008C1222008C1620001F
:1000E0003208043C031C7C2831082A0203197B28AF
:1000F0002A08B100B20A702821000C1222000C124A
:1001000021008C1222008C1221000C1022000C10F5
:1001100021008C1022008C108031200021296A30AF
:10012000210099002000A801A901AA01AB012C100F
:10013000AC102C11AC1123008C0122009201910112
:1001400001302000AD00AE0023009101951315147D
:1001500013082000AF002F0FAE28B0282F08AE00E4
:100160002E08AD000B138B138B1BB32821009116A7
:1001700022009D11353020009800990121001114B2
:1001800020009601970196010230A800C0308B0430
:1001900021008C1222008C1221000C1222000C1261
:1001A00021000C1022000C1021008C1022008C1059
:1001B00004302000B000FA30B1003F28B00BDB283B
:1001C00021008C1520008C1DF12821000C15200029
:1001D0000C19F12821008C1022008C140230200010
:1001E000AD0021008C1520008C19022921000C156E
:1001F00020000C1D022921008C1022008C100130DF
:100200002000AD002E082D02031921292D08AE0073
:100210000B08A0008B132300910120002E0823005F
:1002200093009513151555309600AA309600951435
:10023000951818291511200020088B042D08B000EE
:100240005628AC1C2A29AC1021000C1001302200C9
:080250008C062000E028630089
:020000040001F9
:04000E008439FF1E14
:00000001FF
;PIC12F1822
;CRC=0623  CREATED="23-nov-20 14:22"
