:0600000080313F280000E2
:08000800830180312000200873
:10001000A4002108A5002208A6002308A700850146
:1000200091308400001C162811181F282408A000F5
:100030002508A1002608A2002708A3000900A80B94
:100040002528A90A0230A8002C142908053C031D04
:100050002C28A901AA0AAC142A083C3C031D332809
:10006000AA01AB0A2C152B083C3C0319AB019601E5
:10007000CF3097002C3096001110803116286A304E
:10008000210099002000A801A901AA01AB012C10B0
:10009000AC102C11AC1123008C01220092019101B3
:1000A0000B138B138B1B51282100911622009D11DD
:1000B000353020009800990121001114200096018C
:1000C000970196010230A800C0308B04AC1C682850
:0400D000662863003B
:020000040001F9
:04000E008439FF1E14
:00000001FF
;PIC12F1822
;CRC=EF57  CREATED="13-nov-20 13:24"
