:0600000080312E2D0000EE
:08000800830180312000200873
:10001000A4002108A5002208A6002308A7002300A9
:1000200011082000A800230012082000A9002300C6
:1000300013082000AA00230014082000AB000B1EA8
:1000400023288B18BA28850191308400001C2A28A7
:10005000111842282408A0002508A1002608A200A3
:100060002708A30028082300910020002908230066
:10007000920020002A082300930020002B08230070
:1000800094000900AE0B4828AF0A0230AE003214CB
:100090002F08053C031D4F28AF01B00AB2143008E9
:1000A0003C3C031D5628B001B10A321531083C3CD6
:1000B0000319B1019601CF3097002C309600111032
:1000C00080312A28013100088A003F3F8200080061
:1000D0000B088B1323009517151400000000891BD3
:1000E0008B1713087F390319B8282100AB002300B0
:1000F00011082100AC00230012082100AD002B08DC
:100100002000111E812823009A0021002C082300C2
:10011000910021002D08230092000B088B139517E6
:10012000151400000000891B8B17130D140D7F3967
:100130000319B8282100AB00230011082100AC00EE
:10014000230012082100AD002B082000111EA62854
:1001500023009A0021002C082300910021002D0883
:1001600023009200910A0319920A200068282300B4
:1001700020000800C63023009100003092002000CB
:1001800068200B1201008B1080312A28E1316F3971
:10019000E4306E326F000A3AE536F037A0392F109E
:1001A000E337ED3AEE34E330E330EF060A008A3904
:1001B000E536A030EC34ED326E3AAE060A008A31F4
:1001C000EF366137E4372031EC3771170D05000148
:1001D0008A31EF366137E4372032E5396236EF385D
:1001E000AE060A00C437F2366937E4370D05000160
:1001F0003C1EBC2620356110E539F43020376110F3
:10020000F037F334E3306F1F3E1F203E0D05000131
:100210004D10E6346D10DF060A004D10E337ED3067
:100220006E326F1DA012E3060A003C1EBC2252294A
:10023000CF10A026201DA012631F3E1F0D05000138
:100240006539F237F22FED30F82FF434ED32EF3A12
:10025000F4060A000D052E17AE24CE24C3244F1732
:100260002E170D0500010A26EF37F0060A00663644
:10027000E133731DA012F512F51275162000E33656
:100280006410A531BB060A000310330D2D3E840017
:10029000203085000318850A2100200880002108ED
:1002A000813F2000B30A08002030850058308400C8
:1002B0000008031969290130A100A001A00B5E29E3
:1002C000A10B5D294A30A000A00B64296729800B8F
:1002D0005B290800911E7E29911E6C2923001D08B0
:1002E0002000AD00230019082000A100AD1C7C29CE
:1002F00023001D121D1620002108DA008031342E43
:100300000B088B1323009517151400000000891BA0
:100310008B170318B52913087F392100A400230087
:1003200011082100A500230012082100A6002408BE
:100330002000111E992923009A002100250823007E
:10034000910021002608230092000B088B139517BB
:10035000151400000000891B8B172100A30BB12985
:10036000B3292300B529DA292300130D140D7F3991
:100370002100A400230011082100A5002300120879
:100380002100A60024082000111EC42923009A0081
:100390002100250823009100210026082300920057
:1003A000910A0319920A03102100A30BD829DA2914
:1003B0002000802920000800210026082000A1013B
:1003C000210025020318E92925082000A000FB29A7
:1003D00021002000A00108302100A700A50D200069
:1003E000A00D21002608200020020318A000A10D66
:1003F0002100A70BEE292000080021082100230876
:10040000A5006430A6002000DC2120082100A30004
:10041000200021083030031D162A2100A41C222AA6
:10042000A419222A241A20301A2A20002100A411FB
:10043000241224142000A1072108111E1D2A2300C4
:100440009A0021002308A5000A30A6002000DC2124
:1004500020082100A300200021083030031D382A85
:100460002100A4193F2A241C3F2A241A20302000EE
:10047000A1072108111E3A2A23009A0021003030DA
:10048000A30723082000111E432A23009A002000FE
:10049000080062082100A10021082000A100080036
:1004A0002100A0010C1620000C1E592A2100201446
:1004B000200021008C1620008C1E612A2100A0142F
:1004C0002000210020082000A1002108EC00600B82
:1004D0006A2A6E2A6008023C031D022B4922210869
:1004E0002100A00020006308210020060319802AB3
:1004F00020082000E3000130A100832A832A210084
:1005000000302000A100A1080319E12AE21D8A2A77
:10051000E2110100621D9F2A0530B400B5010230CE
:10052000E100CB3023009100003092002000AC01AC
:100530008B1BAC178B136820AC1B8B17D92A621C42
:10054000B42A0530B400B5010230E100D7302300F1
:100550009100003092002000AC018B1BAC178B1374
:100560006820AC1B8B17D92AE21CC82AB401B5013C
:100570000230E100DF3023009100003092002000C3
:10058000AC018B1BAC178B136820AC1B8B17D92AC3
:10059000B401B5010130E100E830230091000030E2
:1005A00092002000AC018B1BAC178B136820AC1B96
:1005B0008B1761086002031DDF2A3810E02A381407
:1005C000012B6008023C031D012B621C012BF23041
:1005D00023009100003092002000AC018B1BAC176F
:1005E0008B136820AC1B8B1721008E0122008E011B
:1005F00007088B100B1664302100A800200054213E
:100600006300DC2B6008033C031DDC2BEC08031D9E
:100610006F2BEB08031D1E2B6108E0003810EB0167
:10062000F83023009100003092002000AC018B1BB9
:10063000AC178B136820AC1B8B176D2B6B08E0007D
:100640003810EB013D14EA010B08A0008B130130B8
:1006500023009100200061082300930095131515D5
:1006600055309600AA30960095149518352B151123
:10067000200020088B0464302100A80020005421B1
:10068000492221082100A0000B082000A0008B13A4
:1006900023009101210020082300930095131515D4
:1006A00055309600AA30960095149518552B1511C3
:1006B000200020088B0464302100A8002000542171
:1006C000083023009100013092002000AC018B1B08
:1006D000AC178B136820AC1B8B17DC2BDC2B610851
:1006E0006C02031DA12B6C08EB0038103C306C072A
:1006F0008400203085000318850A00082100A0002E
:100700000D30230091000130920003100B302100C6
:10071000A30020008021210020082000111E8E2B24
:1007200023009A000D302000111E942B23009A0004
:100730000A302000111E9A2B23009A002000DC2B87
:10074000DC2BEA0A6A08133C031CCD2B3C306C07F7
:100750008400203085000318850A00082100A000CD
:100760001530230091000130920003100D3021005C
:10077000A30020008021210020082000111EBE2B94
:1007800023009A001C3091000130920003140530C0
:100790002100A30020008021DC2B203023009100C9
:1007A000013092002000AC018B1BAC178B1368202A
:1007B000AC1B8B17EA0101008031962E6108023CC8
:1007C000031D022C21000E1122000E110230210007
:1007D000A700FA30A800200054212100A70BE92B24
:1007E0008E1022008E1402302100A700FA30A800DB
:1007F000200054212100A70BF62B8E1222008E160A
:10080000202C200021008E1022008E1002302100AA
:10081000A700FA30A800200054212100A70B092CC2
:100820000E1122000E1502302100A700FA30A80098
:10083000200054212100A70B162C8E1222008E12AC
:1008400003302000E00008005A082100A800A90198
:100850002908023C031C3E2C373029078400203035
:1008600085000318850A28080002031D3C2C01306E
:100870002000A100412C2100A90A282C00302000D2
:10088000A100A1080319582C5A08E40021002708E8
:10089000003A20000319502C013A0319542C572C0C
:1008A000DA016408A1005A2C6408A1005A2C5A2CC1
:1008B0000030A10008002100A70120002424210805
:1008C000E500E5080319682CE60162116F2C6E2C17
:1008D0006608043C03186E2C62156F2CE60A0800AB
:1008E00001302100A700200024242108DB005B0840
:1008F000423C031D7D2CE214872C5B08443C031D05
:10090000832CE210872C5B08523C031D872C0800C7
:1009100021000C1520000C1D912C6210E701982C71
:10092000972C6708043C0318972C6214982CE70A4C
:10093000080069080E3C031CAC2C031DA32C68089E
:100940000F3C031CAC2C21008E1122008E152000C0
:10095000E80A0319E90AB42C21008E1122008E1135
:100960002000E901E8013D1008002100A001A001DC
:10097000200033082100200203182B2D0310200D26
:1009800020002D3EA1002030A3000318A30A210857
:100990002100A100200023082100A20085002108D9
:1009A00084000008A30001310008A4003F3123089F
:1009B0008400240885000431000801390319272D1B
:1009C0000310200D20002D3E8400203085000318E8
:1009D000850A00082100A10001310008A2003F3172
:1009E0002208A4002108A30023088400240885000D
:1009F0000131023F2000A300013F2100A50020009B
:100A000023082100A6002308840024088500013162
:100A10000008A7002308840024088500003100088E
:100A20002702031D212D230884002408850001319D
:100A30008001203085005530840020006220282D60
:100A4000210023088400240885000131800A200049
:100A50002100A00AB82C80312000972E6A30210096
:100A600099002000AD0123009F1119309B00A63092
:100A70009E0090309D002000AE01AF01B001B10199
:100A80003210B2103211B211B3012D30DA0002303F
:100A9000E0000130E100FF30E300E401E501E601A0
:100AA000E701E901E801EA01EB01EC0123008C0117
:100AB0008E012200920191019401930142302000A5
:100AC000D7004430D8005230D9004530DC004130E6
:100AD000DD004630DE005430DF002200920191013B
:100AE000940193010B131D159D170B138B138B1B77
:100AF000762D9D11353020009800990121001114A8
:100B000020009601970196010230AE00C0308B04A0
:100B10006210E2106211B401B50138102030850076
:100B2000163084000330A300DE3080002308813FAC
:100B3000BE01BF0142142030850084000430A300B0
:100B40005B3080002308813FC301C401471420307B
:100B50008500253084000430A30070308000230815
:100B6000813FC801C9014C14203085002A3084001F
:100B70000430A300883080002308813FB901BA0106
:100B80003D14203085001B3084000430A3009930D0
:100B900080002308813F20302100A1002330A000E5
:100BA0002000442120302100A1001E30A0002000A0
:100BB000442120302100A1002830A0002000442141
:100BC00020302100A1001930A00020004421203055
:100BD0002100A1001430A000200044212300910135
:100BE0009513151413082000ED006D0FF82DFA2D44
:100BF0006D08E20021000E1222000E1221008E125A
:100C000022008E122A302300910001309200200031
:100C1000AC018B1BAC178B136820AC1B8B17ED0141
:100C20006D08053C031C252E21000E1210302200F9
:100C30008E0621008E12203022008E069630210072
:100C4000A80020005421ED0A102E3330230091001B
:100C5000013092002000AC018B1BAC178B13682075
:100C6000AC1B8B1732186A29B21C9D2EB2100030B3
:100C7000621801302100A00000302000E21801308D
:100C80002100A10000302000621901302100A200E3
:100C9000373023009100013092000310073021000B
:100CA000A3002000802121002008A3001B30A40005
:100CB0002000FD2121002108A3001B30A4002000FA
:100CC000FD2121002208A3001B30A4002000FD21EB
:100CD0002C30111E692E23009A0020302000111E96
:100CE0006F2E23009A003F309100013092000310D4
:100CF00004302100A300200080215A08111E7E2EFE
:100D000023009A003B302000111E842E23009A00FD
:100D10000D302000111E8A2E23009A000A30200078
:100D2000111E902E23009A002000502AB52C21007D
:0E0D30000E12103022008E062000322E6300BC
:020000040001F9
:04000E00C43FFF1AD2
:00000001FF
;PIC16F1823
;CRC=8ECF  CREATED="04-dez-20 13:55"
