:060000008031CE2C00004F
:08000800830180312000200873
:10001000A4002108A5002208A6002308A7002300A9
:1000200011082000A800230012082000A9002300C6
:1000300013082000AA00230014082000AB0085014B
:1000400091308400001C2628111845288501913024
:100050008400801E2D28911A6B282408A0002508F2
:10006000A1002608A2002708A30028082300910069
:10007000200029082300920020002A082300930072
:1000800020002B08230094000900AD0B4B28AE0A7A
:100090000230AD0031142E08053C031D5228AE017C
:1000A000AF0AB1142F083C3C031D5928AF01B00A18
:1000B000311530083C3C0319B0019601CF30970050
:1000C0002C309600111080312D28013100088A0053
:1000D0003F3F82000800911E6B2823001908200072
:1000E000B600911280312D28E133F530723261373C
:1000F000E437A026203E0D0500004D10E6346D10BB
:10010000DF060A004D106131F2346E326F10AF0617
:100110000A004D10E63263346137E437202E0D05B6
:1001200000016539F237F22FED30F82FF434ED325B
:10013000EF3AF4060A006636E133731DA012F51299
:10014000F512F5060A000310320D183E8400203027
:1001500085000318850A2100200880002108813FBE
:100160002000B20A0800203085005B3084000008BF
:100170000319C8280130A100A001A00BBD28A10BC4
:10018000BC284A30A000A00BC328C628800BBA2880
:1001900008000B088B1323009517151400000000AE
:1001A000891B8B170318FE2813087F392100A40030
:1001B000230011082100A500230012082100A60039
:1001C00024082000111EE22823009A00210025089F
:1001D0002300910021002608230092000B088B13B6
:1001E0009517151400000000891B8B172100A30B25
:1001F000FA28FC282300FE2823292300130D140DC0
:100200007F392100A400230011082100A50023004C
:1002100012082100A60024082000111E0D29230029
:100220009A002100250823009100210026082300C0
:100230009200910A0319920A03102100A30B2129AD
:1002400023292000C92880312000B02D2100260854
:100250002000A101210025020318332925082000D0
:10026000A000452921002000A00108302100A7009E
:10027000A50D2000A00D2100260820002002031853
:10028000A000A10D2100A70B38292000080021089B
:1002900021002308A5006430A600200026212008A4
:1002A0002100A300200021083030031D6029210017
:1002B000A41C6C29A4196C29241A2030642920005C
:1002C0002100A411241224142000A1072108111ECA
:1002D000672923009A0021002308A5000A30A60000
:1002E0002000262120082100A30020002108303012
:1002F000031D82292100A4198929241C8929241A73
:1003000020302000A1072108111E842923009A0013
:1003100021003030A30723082000111E8D2923005F
:100320009A00200008000B088B1323009517151462
:1003300000000000891B8B1713087F390319E3297C
:100340002100A200230011082100A30023001208AD
:100350002100A40022082000111EAC2923009A00CD
:10036000210023082300910021002408230092008B
:100370000B088B139517151400000000891B8B17B1
:10038000130D140D7F390319E3292100A200230066
:1003900011082100A300230012082100A400220854
:1003A0002000111ED12923009A00210023082300D8
:1003B00091002100240823009200910A0319920A57
:1003C000200093292300200008002100A2010C1521
:1003D00020000C1DEE2921002214200021000E1502
:1003E00020000E1DF6292100A21420002100220861
:1003F0002000A1002108D10021002008840021084C
:1004000085000331000B052A0E2A200884002108EC
:10041000850003310008023C031DC02A20004C085F
:100420002100A2002208A4002408A500250820001D
:10043000A10021082100A30020004D08210023066F
:1004400003192A2A23082000CD000130A1002D2AFB
:100450002D2A210000302000A100A108031D322A0E
:100460002100C02A210021082000A300210020082B
:10047000A200200023082100A30021082000A300DF
:1004800021002008840020002308850000082100A6
:10049000A40001310008A50001310008A6000131C7
:1004A0000008A70001310008A80001310008A900D8
:1004B00001310008AA003A312408AB002508AC003D
:1004C0002608AD002708AE002808AF002908B000B4
:1004D0002A08B10020004C1D752A05302100AB0010
:1004E000AC010230AD008D2A20004C1C7F2A053063
:1004F0002100AB00AC010230AD008D2A2000CC1CE5
:10050000882A2100AB01AC010230AD008D2A200009
:100510002100AB01AC010130AD002D082E02031DFE
:10052000932AAF10942AAF14AB302000A100A2018F
:100530002208A30021082100A40020002308210094
:10054000A50007302000A10021002508850024080F
:10055000840000082000A000210023088500220854
:1005600084002000200880002100A20A0319A30AA9
:10057000A40A0319A50A2000A10BA42A302B2100EC
:10058000200884002108850003310008033C031D76
:10059000272B2000D108031DF22AD008031DD82ADA
:1005A0007430230091000030920020009321F12A42
:1005B0002100200884002108850020005008833F86
:1005C00021002008840021088500043180102000CB
:1005D000D001CF017D302300910000309200200037
:1005E00093210B2B510BFE2A5108D000823023009F
:1005F000910000309200200093210B2B5108023C07
:10060000031D0B2B5108D0008930230091000030CE
:10061000920020009321CF0A4F080A3C0318252B93
:10062000913023009100003092002000932121009E
:1006300020088400210885000331800120088400FF
:1006400021088500033180012000302B2100200883
:1006500084002108850003318008031D2F2B200012
:100660008031D72D2100290884002A088500003117
:10067000000B522B290884002A0885000330813F93
:100680000C1222000C1264302100AB002000B320B9
:1006900021008C1222008C1621008E1222008E1254
:1006A000712B2100290884002A08850000310008E8
:1006B000023C031D722B290884002A0885000330A0
:1006C000813F8C1222008C1264302100AB0020008C
:1006D000B32021000C1222000C1621000E12220061
:1006E0000E1621002000080036082100AE00AF01E0
:1006F0002F08023C031C8E2B13302F078400203060
:1007000085000318850A2E080002031D8C2B01307A
:100710002000A100912B2100AF0A782B003020008F
:10072000A100A1080319A82B3608CE0021002D082E
:10073000003A20000319A02B013A0319A42BA72B80
:10074000B6014E08A100AA2B4E08A100AA2BAA2B85
:100750000030A1000800210029082000A10021008C
:100760002A082000A30021082100AB002000230854
:100770002100AC00AD012000742321002C0885006D
:100780002B08840020002108800021002908840013
:100790002A088500003180080319D92B2908840014
:1007A0002A0885000131800120004C11EC2BE52B3B
:1007B0002100290884002A08850001310008043C32
:1007C0000318E62B20004C15EC2B2100290884008F
:1007D0002A0885000131800A20000800013021002C
:1007E000AD002000742321082100AB002B08423CFF
:1007F000031D072C2000CC142100290884002A089E
:10080000850000312B080002031D00301C2C2B0832
:10081000443C031D182C2000CC1021002908840022
:100820002A08850000312B080002031D00301C2C13
:100830002B08523C031D1C2C2000080021008E14A4
:1008400020008E1C252C4C10262C4C140800210056
:10085000A001A00120003208210020020318CB2CA7
:100860000310200D2000183E84002030850003185E
:10087000850A00082100A10001310008A2003F31D3
:10088000A108031D462CA2080319CB2C0310200D30
:100890002000183EA1002030A3000318A30A21085D
:1008A0002100A100200023082100A20085002108CA
:1008B00084000008A30001310008A4003F31230890
:1008C000840024088500043100082000A0002036A0
:1008D00001390319C82C03102100200D2000183EF7
:1008E0008400203085000318850A00082100A1003B
:1008F00001310008A2003F312208A4002108A30012
:1009000023088400240885000131053F2000A3004E
:10091000043F2100A500200023082100A600230891
:1009200084002408850001310008A7002308840002
:1009300024088500003100082702031DC12C23086C
:100940008400240885000131800102302307200043
:10095000A10000302100243D2000A3002108210037
:10096000A700200023082100A80020308500553072
:1009700084002808AA002708A90020006520C82CA8
:10098000210023088400240885000131800A20000A
:100990002100A00A2A2C80312000D82D6A302100A5
:1009A000990022001D159D1723009F1119309B00EF
:1009B000A6309E0090309D001E302000AC00AD019E
:1009C000AE01AF01B0013110B1103111B111B2015E
:1009D0002D30B600B701CD01CE01CF01D001D1013C
:1009E00023008C018E012200920191019401930158
:1009F00042302000B3004430B4005230B5004C10F7
:100A0000CC104C11D201D3010130D400D5005610C6
:100A1000D61020308500373084000330A3003230F8
:100A200080002308813FD901DA017430DB00DC014A
:100A30005D10DD14203085003E3084000330A300BB
:100A4000AB3080002308813FE001E1013030E2005B
:100A5000E2006410E4142030850045308400033047
:100A6000A300EE3080002308813FE701E8017430E5
:100A7000E9005830EA006B10EB14203085004C3050
:100A800084000430A3001E3080002308813F203002
:100A90002100A1004030A0002000A3202030210030
:100AA000A1004730A0002000A32020302100A10099
:100AB0003230A0002000A3200B138B138B1B5D2D65
:100AC0002100911622009D113530200098009901D7
:100AD0002100111420009601970196010230AD000B
:100AE000C0308B0421000E1222000E1221008E1243
:100AF00022008E122000EE016E08053C031C912D91
:100B000021000E12103022008E0621008E1220309D
:100B100022008E0696302100AB002000B320EE0AA2
:100B20007C2DB11CDE2DB11000304C18013021009D
:100B3000A00000302000CC1801302100A1000030BE
:100B400020004C1901302100A2009B3023009100AD
:100B500000309200031007302100A3002000C928B4
:100B600021002008A3001B30A40020004721210001
:100B70002108A3001B30A4002000472121002208E7
:100B8000A3001B30A400200047210D30111EC62DEC
:100B900023009A000A302000111ECC2D23009A0059
:100BA00020302100A1003230A0002000E529272CB0
:100BB00021000E12103022008E062000912D6300BD
:020000040001F9
:02E0000000001E
:04E0280000000000F4
:04000E008439FF1E14
:00000001FF
;PIC16F1823
;CRC=1A6F  CREATED="16-nov-20 17:00"
