:060000008031A22C00007B
:08000800830180312000200873
:10001000A4002108A5002208A6002308A7002300A9
:1000200011082000A800230012082000A9002300C6
:1000300013082000AA00230014082000AB0085014B
:1000400091308400001C2628111845288501913024
:100050008400801E2D28911A6B282408A0002508F2
:10006000A1002608A2002708A30028082300910069
:10007000200029082300920020002A082300930072
:1000800020002B08230094000900AD0B4B28AE0A7A
:100090000230AD0031142E08053C031D5228AE017C
:1000A000AF0AB1142F083C3C031D5928AF01B00A18
:1000B000311530083C3C0319B0019601CF30970050
:1000C0002C309600111080312D28013100088A0053
:1000D0003F3F82000800911E6B2823001908200072
:1000E000B600911280312D284D10EE306F10E7349C
:1000F000F2377510FC060A004D10E6346D10DF066D
:100100000A004D106131F2346E326F10AF060A00F2
:100110004D10E63263346137E437202E0D050001BF
:100120006539F237F22FED30F82FF434ED32EF3A33
:10013000F4060A006636E133731DA012F512F512BB
:10014000F5060A000310320D183E840020308500A9
:100150000318850A6D0880006E08813FB20A080006
:100160000B088B1323009517151400000000891B42
:100170008B170318E52813087F392100A1002300FD
:1001800011082100A200230012082100A300210869
:100190002000111EC92823009A00210022082300F4
:1001A000910021002308230092000B088B13951760
:1001B000151400000000891B8B172100A00BE128FB
:1001C000E3282300E5280A292300130D140D7F39A5
:1001D0002100A100230011082100A2002300120821
:1001E0002100A30021082000111EF42823009A00FA
:1001F00021002208230091002100230823009200FF
:10020000910A0319920A03102100A00B08290A2958
:100210002000B02880312000672D21002308200015
:10022000A1012100220203181A2922082000A0009F
:100230002C2921002000A00108302100A400A20DDB
:100240002000A00D21002308200020020318A00098
:10025000A10D2100A40B1F29200008002108210066
:100260002008A2006430A30020000D2120082100F6
:10027000A000200021083030031D47292100A11CC7
:100280005329A1195329211A20304B29200021007C
:10029000A111211221142000A1072108111E4E29AD
:1002A00023009A0021002008A2000A30A3002000A9
:1002B0000D2120082100A000200021083030031D5E
:1002C00069292100A1197029211C7029211A2030C7
:1002D0002000A1072108111E6B2923009A0021008C
:1002E0003030A00720082000111E742923009A0036
:1002F000200008000B088B1323009517151400002D
:100300000000891B8B1713087F390319CA292100A4
:10031000A000230011082100A100230012082100E1
:10032000A20020082000111E932923009A0021001A
:1003300021082300910021002208230092000B08CD
:100340008B139517151400000000891B8B17130DD4
:10035000140D7F390319CA292100A00023001108B8
:100360002100A100230012082100A2002008200083
:10037000111EB82923009A002100210823009100B2
:100380002100220823009200910A0319920A2000FA
:100390007A292300200008002100A0010C1520006C
:1003A0000C1DD52921002014200021000E1520004D
:1003B0000E1DDD292100A0142000210020082000AE
:1003C000A1002108D0006D0884006E08850003316B
:1003D000000BEB29F4296D0884006E0885000331B9
:1003E0000008023C031D8A2A4C082100A0002008B6
:1003F000A2002208A30023082000A1002108210058
:10040000A10020004D082100210603190F2A210810
:100410002000CD000130A100122A122A2100003054
:100420002000A100A10803198A2A4C1D2A2A6D0860
:1004300084006E0885000530803F6D0884006E08DA
:100440008500013180016D0884006E08850002304E
:10045000823F662A4C1C3F2A6D0884006E08850086
:100460000530803F6D0884006E08850001318001F1
:100470006D0884006E0885000230823F662ACC1C1D
:10048000542A6D0884006E088500003180016D08D3
:1004900084006E088500013180016D0884006E08BB
:1004A00085000230823F662A6D0884006E08850050
:1004B000003180016D0884006E08850001318001E3
:1004C0006D0884006E0885000130823F6D0884004D
:1004D0006E088500033100082100A00020006D088F
:1004E00084006E0885000231000821002002031DEF
:1004F000822A20006D0884006E0885000431801077
:10050000892A210020006D0884006E0885000431CE
:100510008014FC2A6D0884006E08850003310008F1
:10052000033C031DF42AD008031DC52ACF08031D70
:10053000AF2A6D0884006E0885004F08833F6D0860
:1005400084006E08850004318010CF0131127430B0
:10055000230091000030920020007A21C42A6D0807
:1005600084006E0885004F08833F6D0884006E0884
:10057000850004318010CF0131127C3023009100BE
:100580000030920020007A21DE2A500BD12A500838
:10059000CF008130230091000030920020007A21AA
:1005A000DE2A5008023C031DDE2A5008CF008830A6
:1005B000230091000030920020007A211030B10613
:1005C0000030311A01300A3C0318F32A903023001E
:1005D00091000030920020007A216D0884006E089E
:1005E000850003318001FC2A6D0884006E088500B7
:1005F00003318008031DFC2A80318E2D20308500B8
:100600005A30840000080319132B0130A100A00107
:10061000A00B082BA10B072B4A30A000A00B0E2B20
:10062000112B800B052B08002100280884002908C5
:1006300085000031000B302B280884002908850034
:100640000330813F0C1222000C1264302100AA00FA
:100650002000FE2221008C1222008C164B2B210040
:10066000280884002908850000310008023C031D89
:100670004C2B28088400290885000330813F8C1208
:1006800022008C1264302100AA002000FE222100EA
:100690000C1222000C162100200008003608210050
:1006A000AD00AE012E08023C031C682B13302E0750
:1006B0008400203085000318850A2D080002031DE0
:1006C000662B01302000A1006B2B2100AE0A522BBB
:1006D00000302000A100A1080319822B3608CE00AB
:1006E00021002C08003A200003197A2B013A031943
:1006F0007E2B812BB6014E08A100842B4E08A10051
:10070000842B842B0030A100080021002808200041
:10071000A100210029082000A30021082100AA002F
:10072000200023082100AB00AC0120004E23210053
:100730002B0885002A088400200021088000210061
:100740002808840029088500003180080319B32B8C
:1007500028088400290885000131800120004C11FF
:10076000C62BBF2B210028088400290885000131F1
:100770000008043C0318C02B20004C15C62B210098
:1007800028088400290885000131800A200008001B
:1007900001302100AC0020004E2321082100AA00D6
:1007A0002A08423C031DE12B2000CC14210028081C
:1007B00084002908850000312A080002031D00304A
:1007C000F62B2A08443C031DF22B2000CC102100FC
:1007D000280884002908850000312A080002031D2A
:1007E0000030F62B2A08523C031DF62B200008008F
:1007F00021008E1420008E1CFF2B4C10002C4C145A
:100800000800ED01ED016D08093C031C9E2C03104E
:100810006D0D183E8400203085000318850A0008FD
:100820002100A00001310008A1003F31A008031DF4
:100830001C2CA10803199F2C031020006D0D183EDD
:10084000A1002030A3000318A30A21082100A00062
:10085000200023082100A100850020088400000852
:10086000A20001310008A3003F31220884002308C0
:100870008500043100082000A0002036013903194A
:100880009C2C03106D0D183E840020308500031849
:10089000850A00082100A00001310008A1003F31B5
:1008A0002108A3002008A200220884002308850054
:1008B0000131053F2000A300043F2100A4002000D7
:1008C00023082100A50022088400230885000131A7
:1008D0000008A600220884002308850000310008D3
:1008E0002602031D952C220884002308850001316F
:1008F0008001023022072000A10000302100233DAA
:100900002000A30021082100A600200023082100C8
:10091000A70020308500543084002708A90026084D
:10092000A800200065209C2C2100220884002308B8
:1009300085000131800A2000ED0A032C210080315E
:1009400020008F2D6A302100990022001D159D176F
:1009500023009F1119309B00A6309E0090309D000F
:100960001E302000AC00AD01AE01AF01B00131106E
:10097000B1103111B111B2012D30B600B701CD0166
:10098000CE013112CF01D00123008C018E01220053
:10099000920191019401930142302000B300443050
:1009A000B4005230B5004C10CC104C11D101D20122
:1009B0000130D300D4005510D510203085003630DA
:1009C00084000330A300143080002308813FD80145
:1009D000D9017430DA00DB015C10DC1420308500B2
:1009E0003D3084000330A300853080002308813F20
:1009F000DF01E0013030E100E1006310E31420305A
:100A00008500443084000330A300C83080002308F0
:100A1000813FE601E7017430E8005830E9006A10D0
:100A2000EA14203085004B3084000330A300F830F6
:100A300080002308813F2030EE003F30ED00A220EF
:100A40002030EE003830ED00A2202030EE0046309D
:100A5000ED00A2202030EE003130ED00A2200B137B
:100A60008B138B1B302D2100911622009D113530E8
:100A7000200098009901210011142000960197018F
:100A800096010230AD00C0308B0421000E1222000E
:100A90000E1221008E1222008E122000B11C8F2D0A
:100AA00000304C180130ED000030CC180130EE0061
:100AB00000304C190130EF009A30230091000030D3
:100AC0009200031007302100A0002000B0286D081C
:100AD0002100A0001B30A10020002E216E08210063
:100AE000A0001B30A10020002E216F082100A000D3
:100AF0001B30A10020002E210D30111E7D2D230062
:100B00009A000A302000111E832D23009A00200035
:100B1000B1102030EE003130ED00CC29012C4E2DEB
:020B2000630070
:020000040001F9
:02E0000000001E
:04E0280000000000F4
:04000E008439FF1E14
:00000001FF
;PIC16F1823
;CRC=432D  CREATED="13-nov-20 16:00"
