:060000008031292D0000F3
:08000800830180312000200873
:10001000A4002108A5002208A6002308A7002300A9
:1000200011082000A800230012082000A9002300C6
:1000300013082000AA00230014082000AB000B1EA8
:1000400023288B18BA28850191308400001C2A28A7
:10005000111842282408A0002508A1002608A200A3
:100060002708A30028082300910020002908230066
:10007000920020002A082300930020002B08230070
:1000800094000900AE0B4828AF0A0230AE003214CB
:100090002F08053C031D4F28AF01B00AB2143008E9
:1000A0003C3C031D5628B001B10A321531083C3CD6
:1000B0000319B1019601CF3097002C309600111032
:1000C00080312A28013100088A003F3F8200080061
:1000D0000B088B1323009517151400000000891BD3
:1000E0008B1713087F390319B8282100AB002300B0
:1000F00011082100AC00230012082100AD002B08DC
:100100002000111E812823009A0021002C082300C2
:10011000910021002D08230092000B088B139517E6
:10012000151400000000891B8B17130D140D7F3967
:100130000319B8282100AB00230011082100AC00EE
:10014000230012082100AD002B082000111EA62854
:1001500023009A0021002C082300910021002D0883
:1001600023009200910A0319920A200068282300B4
:1001700020000800C43023009100003092002000CD
:1001800068208B1080312A28E1316F39E4306E32DB
:100190006F000A3AE536F037A0392F10E337ED3A11
:1001A000EE34E330E330EF060A008A39E536A0305A
:1001B000EC34ED326E3AAE060A008A31EF36613722
:1001C000E4372031EC3771170D0500018A31EF3625
:1001D0006137E4372032E5396236EF38AE060A007F
:1001E000C437F2366937E4370D0500013C1EBC26E2
:1001F00020356110E539F43020376110F037F334E1
:10020000E3306F1F3E1F203E0D0500014D10E63408
:100210006D10DF060A004D10E337ED306E326F1DB2
:10022000A012E3060A003C1EBC225229CF10A026D1
:10023000201DA012631F3E1F0D0500016539F23716
:10024000F22FED30F82FF434ED32EF3AF4060A00D5
:100250000D052E17AE24CE24C3244F172E170D05DF
:1002600000010A26EF37F0060A006636E133731DF7
:10027000A012F512F51275162000E3366410A531B0
:10028000BB060A000310330D2D3E8400203085008C
:100290000318850A2100200880002108813F2000E2
:1002A000B30A080020308500583084000008031984
:1002B00067290130A100A001A00B5C29A10B5B29DB
:1002C0004A30A000A00B62296529800B592908003B
:1002D000911E7C29911E6A2923001D082000AD0073
:1002E000230019082000A100AD1C7A2923001D124B
:1002F0001D1620002108DA008031302E0B088B13E8
:1003000023009517151400000000891B8B17031894
:10031000B32913087F392100A4002300110821000C
:10032000A500230012082100A60024082000111EA9
:10033000972923009A00210025082300910021001D
:100340002608230092000B088B1395171514000044
:100350000000891B8B172100A30BAF29B1292300B3
:10036000B329D8292300130D140D7F392100A400CF
:10037000230011082100A500230012082100A60077
:1003800024082000111EC22923009A0021002508FC
:10039000230091002100260823009200910A0319EE
:1003A000920A03102100A30BD629D82920007E2908
:1003B00020000800210026082000A10121002502BC
:1003C0000318E72925082000A000F92921002000B2
:1003D000A00108302100A700A50D2000A00D2100DC
:1003E0002608200020020318A000A10D2100A70B61
:1003F000EC2920000800210821002308A500643012
:10040000A6002000DA2120082100A30020002108F6
:100410003030031D142A2100A41C202AA419202AEC
:10042000241A2030182A20002100A4112412241498
:100430002000A1072108111E1B2A23009A00210079
:100440002308A5000A30A6002000DA212008210098
:10045000A300200021083030031D362A2100A419F2
:100460003D2A241C3D2A241A20302000A1072108FF
:10047000111E382A23009A0021003030A3072308D8
:100480002000111E412A23009A0020000800620863
:100490002100A10021082000A10008002100A001E6
:1004A0000C1620000C1E572A2100201420002100C9
:1004B0008C1620008C1E5F2A2100A0142000210031
:1004C00020082000A1002108EC00600B682A6C2A9B
:1004D0006008023C031DFD2A472221082100A000DC
:1004E000200063082100200603197E2A200820002E
:1004F000E3000130A100812A812A21000030200080
:10050000A100A1080319DF2AE21D882AE2110100D7
:10051000621D9D2A0530B400B5010230E100C930EA
:1005200023009100003092002000AC018B1BAC171F
:100530008B136820AC1B8B17D72A621CB22A05309C
:10054000B400B5010230E100D53023009100003045
:1005500092002000AC018B1BAC178B136820AC1BE6
:100560008B17D72AE21CC62AB401B5010230E1007C
:10057000DD3023009100003092002000AC018B1B85
:10058000AC178B136820AC1B8B17D72AB401B501AD
:100590000130E100E630230091000030920020009D
:1005A000AC018B1BAC178B136820AC1B8B1761083D
:1005B0006002031DDD2A3810DE2A3814FC2A600888
:1005C000023C031DFC2A621CFC2AF030230091002F
:1005D000003092002000AC018B1BAC178B136820FD
:1005E000AC1B8B1721008E0122008E01643021008C
:1005F000A800200052216300D72B6008033C031D94
:10060000D72BEC08031D6A2BEB08031D192B61087F
:10061000E0003810EB01F63023009100003092002A
:100620002000AC018B1BAC178B136820AC1B8B1705
:10063000682B6B08E0003810EB013D14EA010B0851
:10064000A0008B13013023009100200061082300DB
:1006500093009513151555309600AA309600951401
:100660009518302B1511200020088B0464302100D0
:10067000A80020005221472221082100A0000B08D9
:100680002000A0008B1323009101210020082300EB
:1006900093009513151555309600AA3096009514C1
:1006A0009518502B1511200020088B046430210070
:1006B000A800200052210630230091000130920052
:1006C0002000AC018B1BAC178B136820AC1B8B1765
:1006D000D72BD72B61086C02031D9C2B6C08EB00F9
:1006E00038103C306C078400203085000318850AE0
:1006F00000082100A0000B3023009100013092007F
:1007000003100B302100A30020007E2121002008CF
:100710002000111E892B23009A000D302000111E8D
:100720008F2B23009A000A302000111E952B2300E6
:100730009A002000D72BD72BEA0A6A08133C031C27
:10074000C82B3C306C078400203085000318850AD4
:1007500000082100A0001330230091000130920016
:1007600003100D302100A30020007E21210020086D
:100770002000111EB92B23009A001A30910001307D
:100780009200031405302100A30020007E21D72B06
:100790001E3023009100013092002000AC018B1B21
:1007A000AC178B136820AC1B8B17EA01010080315A
:1007B000922E6108023C031DFD2B21000E11220028
:1007C0000E1102302100A700FA30A80020005221AB
:1007D0002100A70BE42B8E1022008E140230210082
:1007E000A700FA30A800200052212100A70BF12B0E
:1007F0008E1222008E161B2C200021008E1022004B
:100800008E1002302100A700FA30A80020005221EB
:100810002100A70B042C0E1122000E15023021001E
:10082000A700FA30A800200052212100A70B112CAC
:100830008E1222008E1203302000E00008005A08B9
:100840002100A800A9012908023C031C392C3730DB
:1008500029078400203085000318850A2808000233
:10086000031D372C01302000A1003C2C2100A90AD7
:10087000232C00302000A100A1080319532C5A0892
:10088000E40021002708003A200003194B2C013A0C
:1008900003194F2C522CDA016408A100552C64086E
:1008A000A100552C552C0030A10008002100A70103
:1008B00020001F242108E500E5080319632CE60148
:1008C00062116A2C692C6608043C0318692C6215B5
:1008D0006A2CE60A080001302100A70020001F242E
:1008E0002108DB005B08423C031D782CE214822CBB
:1008F0005B08443C031D7E2CE210822C5B08523CBA
:10090000031D822C080021000C1520000C1D8C2CCE
:100910006210E701932C922C6708043C0318922C78
:100920006214932CE70A080069080E3C031CA72CEC
:10093000031D9E2C68080F3C031CA72C21008E1160
:1009400022008E152000E80A0319E90AAF2C2100C5
:100950008E1122008E112000E901E8013D100800EF
:100960002100A001A001200033082100200203186B
:10097000262D0310200D20002D3EA1002030A300C5
:100980000318A30A21082100A10020002308210048
:10099000A2008500210884000008A300013100089E
:1009A000A4003F3123088400240885000431000896
:1009B00001390319222D0310200D20002D3E840043
:1009C000203085000318850A00082100A1000131AC
:1009D0000008A2003F312208A4002108A300230838
:1009E0008400240885000131023F2000A300013F5C
:1009F0002100A500200023082100A6002308840070
:100A00002408850001310008A70023088400240879
:100A10008500003100082702031D1C2D23088400D7
:100A20002408850001318001203085005530840084
:100A300020006220232D2100230884002408850043
:100A40000131800A20002100A00AB32C803120004F
:100A5000932E6A30210099002000AD0123009F11E0
:100A600019309B00A6309E0090309D002000AE0102
:100A7000AF01B001B1013210B2103211B211B301A5
:100A80002D30DA000230E0000130E100FF30E300F9
:100A9000E401E501E601E701E901E801EA01EB0112
:100AA000EC0123008C018E0122009201910194013E
:100AB000930142302000D7004430D8005230D90092
:100AC0004530DC004130DD004630DE005430DF00D0
:100AD000220092019101940193010B131D159D17A2
:100AE0000B138B138B1B712D0B169D1135302000B2
:100AF0009800990121001114200096019701960198
:100B00000230AE00C0308B046210E2106211B401FA
:100B1000B501381020308500163084000330A30062
:100B2000D93080002308813FBE01BF01421420302C
:100B3000850084000430A300563080002308813FE4
:100B4000C301C401471420308500253084000430DF
:100B5000A3006B3080002308813FC801C9014C14F9
:100B6000203085002A3084000430A30083308000C8
:100B70002308813FB901BA013D14203085001B30A4
:100B800084000430A300943080002308813F20308B
:100B90002100A1002330A0002000422120302100AC
:100BA000A1001E30A0002000422120302100A10021
:100BB0002830A0002000422120302100A10019305F
:100BC000A0002000422120302100A1001430A0000C
:100BD00020004221230091019513151413082000D1
:100BE000ED006D0FF42DF62D6D08E20021000E12C0
:100BF00022000E1221008E1222008E1228302300B5
:100C00009100013092002000AC018B1BAC178B13BC
:100C10006820AC1B8B17ED016D08053C031C212ED1
:100C200021000E12103022008E0621008E1220307C
:100C300022008E0696302100A80020005221ED0AE5
:100C40000C2E313023009100013092002000AC01C5
:100C50008B1BAC178B136820AC1B8B1732186829C1
:100C6000B21C992EB2100030621801302100A00091
:100C700000302000E21801302100A10000302000E7
:100C8000621901302100A2003530230091000130AB
:100C90009200031007302100A30020007E212100D4
:100CA0002008A3001B30A4002000FB212100210804
:100CB000A3001B30A4002000FB2121002208A30078
:100CC0001B30A4002000FB212C30111E652E2300B8
:100CD0009A0020302000111E6B2E23009A003D3018
:100CE000910001309200031004302100A300200085
:100CF0007E215A08111E7A2E23009A003B302000D4
:100D0000111E802E23009A000D302000111E862E09
:100D100023009A000A302000111E8C2E23009A0016
:100D200020004E2AB02C21000E12103022008E0618
:060D300020002E2E6300DE
:020000040001F9
:04000E00C43FFF1AD2
:00000001FF
;PIC16F1823
;CRC=A990  CREATED="03-dez-20 17:00"
