:060000008031782C0000A5
:08000800830180312000200873
:10001000A4002108A5002208A6002308A7002300A9
:1000200011082000A800230012082000A9002300C6
:1000300013082000AA00230014082000AB0085014B
:1000400091308400001C2628111845288501913024
:100050008400801E2D28911A6B282408A0002508F2
:10006000A1002608A2002708A30028082300910069
:10007000200029082300920020002A082300930072
:1000800020002B08230094000900AD0B4B28AE0A7A
:100090000230AD0031142E08053C031D5228AE017C
:1000A000AF0AB1142F083C3C031D5928AF01B00A18
:1000B000311530083C3C0319B0019601CF30970050
:1000C0002C309600111080312D28013100088A0053
:1000D0003F3F82000800911E6B2823001908200072
:1000E000B600911280312D286539F237F22F693729
:1000F000693ADF39F430F4320D0500006539F23722
:10010000F22FED30F82FF434ED32EF3AF4060A0016
:100110006636E133731DA012F512F512F5060A00DA
:100120000310320D183E8400203085000318850A24
:100130006C0880006D08813FB20A080020308500FD
:100140005A30840000080319B3280130A100A0012F
:10015000A00BA828A10BA7284A30A000A00BAE280E
:10016000B128800BA5280800210028088400290850
:10017000850000310008433C031DD2282808840074
:10018000290885000130813F0C1222000C126430D6
:100190002100AA0020009E2021008C1222008C1633
:1001A000ED28210028088400290885000031000876
:1001B0004F3C031DEE2828088400290885000130E3
:1001C000813F8C1222008C1264302100AA00200092
:1001D0009E2021000C1222000C1621002000080095
:1001E00021002C08003A20000319FA28013A0319CB
:1001F0002529272936082100AD00AE012E08023C32
:10020000031C142913302E078400203085000318A6
:10021000850A2D080002031D122901302000A100CB
:1002200017292100AE0AFE2800302000A100A108F5
:10023000031922293608CF003030B6004F08A1003C
:10024000272925293030A10027294F08A1000800BF
:10025000210028082000A100210029082000A30077
:1002600021082100AA00200023082100AB00AC01D6
:100270002000F02021002B0885002A08840020009F
:100280002108800021002808840029088500003109
:100290000008303C031957292808840029088500E4
:1002A0000131800120004C116A29632921002808AE
:1002B00084002908850001310008043C03186429E2
:1002C00020004C156A29210028088400290885008F
:1002D0000131800A2000080001302100AC0020001C
:1002E000F02021082100AA002A08423C031D85298C
:1002F0002000CC1421002808840029088500003142
:100300002A080002031D003095292A08443C031DD9
:1003100095292000CC102100280884002908850098
:1003200000312A080002031D0030200008002100CF
:100330008E1420008E1C9E294C109F294C140800FE
:10034000EC01EC016C08093C031C3D2A03106C0D08
:10035000183E8400203085000318850A000821001B
:10036000A00001310008A1003F31A008031DBB29F6
:10037000A10803193E2A031020006C0D183EA100AD
:100380002030A3000318A30A21082100A0002000A8
:1003900023082100A1008500200884000008A20095
:1003A00001310008A3003F312208840023088500A2
:1003B000043100082000A0002036013903193B2A2F
:1003C00003106C0D183E8400203085000318850A48
:1003D00000082100A00001310008A1003F312108E0
:1003E000A3002008A2002208840023088500013110
:1003F000053F2000A300043F2100A40020002308A3
:100400002100A5002208840023088500013100088E
:10041000A600220884002308850000310008260277
:10042000031D342A2208840023088500013180013D
:10043000023022072000A10000302100233D2000CF
:10044000A30021082100A600200023082100A70006
:1004500020308500543084002708A9002608A80011
:10046000200065203B2A2100220884002308850003
:100470000131800A2000EC0AA229210080312000ED
:100480001F2DEE0121000C1520000C196E14210007
:100490008C1520008C19EE146E08A10008000B08C2
:1004A0008B1323009517151400000000891B8B1770
:1004B00013087F3903199F2A2100A0002300110887
:1004C0002100A100230012082100A2002008200022
:1004D000111E682A23009A002100210823009100A0
:1004E00021002208230092000B088B139517151486
:1004F00000000000891B8B17130D140D7F390319A1
:100500009F2A2100A000230011082100A100230040
:1005100012082100A20020082000111E8D2A2300AD
:100520009A002100210823009100210022082300C5
:100530009200910A0319920A20004F2A23002000FA
:1005400008006C0884006D08850003318008031DD5
:100550003F2B4C08EE006E082100A0002008A100EF
:1005600021082000A1002108EF004D086F060319A3
:10057000BF2A6F08CD000130A100C12AC12A003076
:10058000A100A10803193E2B4122A1080319D52A75
:100590007430230091000030920020004F226C083C
:1005A00084006D0885000230833F4C1DF02A6C08E2
:1005B00084006D0885000530803F6C0884006D085C
:1005C0008500013180016C0884006D0885004F3082
:1005D000823F6C0884006D088500043180143E2B36
:1005E0004C1C0B2B6C0884006D0885000530803F87
:1005F0006C0884006D088500013180016C0884005E
:100600006D0885004F30823F6C0884006D088500BE
:10061000043180143E2BCC1C262B6C0884006D0802
:1006200085000530803F6C0884006D08850001312D
:1006300080016C0884006D0885004F30823F6C0893
:1006400084006D088500043180143E2B6C08840002
:100650006D088500003180016C0884006D088500FC
:10066000013180016C0884006D0885004330823FB1
:100670006C0884006D08850004318014B22B6C086E
:1006800084006D0885000331000BA92B4122A108CD
:10069000031D802B311A5F2B7C30111E4D2B230044
:1006A0009A000D302000111E532B23009A000A30AF
:1006B0002000111E592B23009A007E2B200031129E
:1006C0006C0884006D088500033180016C0884008B
:1006D0006D08850004318010B1125F30111E6E2B41
:1006E00023009A000D302000111E742B23009A0065
:1006F0000A302000111E7A2B23009A00922B200032
:1007000031162F30111E822B23009A000D3020004D
:10071000111E882B23009A000A302000111E8E2BF8
:1007200023009A0020302000B1060030B11A0130B9
:100730000A3C0318A82B7E30230091000030920061
:1007400020004F226C0884006D0885000230833F32
:10075000B22B6C0884006D08850003310008023C50
:10076000031DB22B8031242D0B088B13230095170A
:10077000151400000000891B8B170318E92B1308C0
:100780007F392100A000230011082100A1002300CF
:1007900012082100A20020082000111ECD2B2300EA
:1007A0009A00210021082300910021002208230043
:1007B00092000B088B139517151400000000891B7D
:1007C0008B172000EF0BE52BE72B2300E92B0B2CDD
:1007D0002300130D140D7F392100A0002300110800
:1007E0002100A100230012082100A20020082000FF
:1007F000111EF82B23009A002100210823009100EC
:100800002100220823009200910A0319920A031082
:100810002000EF0BB42B80313A2D2100220820005C
:10082000A1012100210203181A2C21082000A00098
:100830002C2C21002000A00108302100A300A10DD4
:100840002000A00D21002208200020020318A00093
:10085000A10D2100A30B1F2C2000080021086F0808
:100860002100A1006430A20020000D242008EF0028
:1008700021083030031D452C2100A01C512CA0194B
:10088000512C201A2030492C20002100A0112012C8
:1008900020142000A1072108111E4C2C23009A00CF
:1008A000210020006F082100A1000A30A2002000D2
:1008B0000D242008EF0021083030031D672C210093
:1008C000A0196E2C201C6E2C201A20302000A107AD
:1008D0002108111E692C23009A00210030302000CD
:1008E000EF076F08111E722C23009A0020000800E9
:1008F0006A302100990022001D159D1723009F11C9
:1009000019309B00A6309E0090309D001E302000C4
:10091000AC00AD01AE01AF01B0013110B110311129
:10092000B111B2012D30B600B701CD01CE0130308A
:10093000CF003112B11223008C018E0122009201EE
:1009400091019401930142302000B3004430B4007F
:100950005230B5004C10CC104C11D001D101743084
:10096000D200D3015410D4142030850035308400D7
:100970000130A300283080002308813FD701D8012F
:100980003030D900D9005B10DB10203085003C30BE
:1009900084000130A3006C3080002308813FDE0119
:1009A000DF014330E000E1016210E21020308500F9
:1009B000433084000030A300B43080002308813F1E
:1009C000E501E6017430E7005830E8006910E914E9
:1009D000203085004A3084000130A3009730800029
:1009E0002308813F2030ED003030EC009020203093
:1009F000ED003E30EC0090200B138B138B1BFD2C75
:100A00002100911622009D11353020009800990197
:100A10002100111420009601970196010230AD00CB
:100A2000C0308B0421000E1222000E1221008E1203
:100A300022008E122000B11C5B2DB110A0292030A5
:100A4000ED003E30EC00A12A00304C180130EC00E3
:100A50000030CC180130ED0000304C190130EE00B0
:100A600088302300910000309200031007302000EE
:100A7000EF00B42B6C08EF001B302100A000200019
:100A80002E246D08EF001B302100A00020002E2432
:100A90006E08EF001B302100A00020002E240D3036
:100AA000111E502D23009A000A302000111E562DD1
:0A0AB00023009A0020001B2D6300B4
:020000040001F9
:02E0000000001E
:04E0280000000000F4
:04000E008439FF1E14
:00000001FF
;PIC16F1823
;CRC=4B2B  CREATED="13-nov-20 00:49"
