:0600000080312F2B0000EF
:08000800830180312000200873
:10001000A4002108A5002208A6002308A7002300A9
:1000200011082000A800230012082000A9002300C6
:1000300013082000AA00230014082000AB0085014B
:1000400091308400001C2628111845288501913024
:100050008400801E2D28911A6B282408A0002508F2
:10006000A1002608A2002708A30028082300910069
:10007000200029082300920020002A082300930072
:1000800020002B08230094000900AD0B4B28AE0A7A
:100090000230AD0031142E08053C031D5228AE017C
:1000A000AF0AB1142F083C3C031D5928AF01B00A18
:1000B000311530083C3C0319B0019601CF30970050
:1000C0002C309600111080312D28013100088A0053
:1000D0003F3F82000800911E6B2823001908200072
:1000E000B600911280312D286539F237F22F733A1C
:1000F000613A65000310320D183E840020308500FF
:100100000318850A650880006608813FB20A080066
:100110002030850050308400000803199D280130EC
:10012000A100A001A00B9228A10B91284A30A000A9
:10013000A00B98289B28800B8F2808006E0884004D
:100140006F08850000310008433C031DBC286E0881
:1001500084006F0885000130813F21000C122200CD
:100160000C1264302100A0002000882021008C1295
:1001700022008C16D82820006E0884006F088500A5
:10018000003100084F3C031DD8286E0884006F081A
:1001900085000130813F21008C1222008C126430D6
:1001A0002100A0002000882021000C1222000C1643
:1001B0002000080021002208003A20000319E4284A
:1001C000013A03190F29112936082100A300A401BF
:1001D0002408023C031CFE2813302407840020302E
:1001E00085000318850A23080002031DFC2801303E
:1001F0002000A10001292100A40AE82800302000E5
:10020000A100A10803190C293608CF003030B60030
:100210004F08A10011290F293030A10011294F08E2
:10022000A10008006E08A1006F08A3006E0821005D
:10023000A00020006F082100A100A2012000DA2008
:10024000210021088500200884002000210880006A
:100250006E0884006F08850000310008303C0319E7
:100260003A296E0884006F088500013180014C1125
:100270004B2945296E0884006F088500013100086C
:10028000043C031845294C154B296E0884006F085F
:1002900085000131800A080001302100A200200001
:1002A000DA2021082100A0002008423C031D652916
:1002B0002000CC146E0884006F08850000312100F6
:1002C00020080002031D003075292008443C031D4E
:1002D00075292000CC106E0884006F08850000315D
:1002E000210020080002031D003020000800E50165
:1002F000E5016508093C031C002A0310650D183E42
:100300008400203085000318850A0008E6000131CA
:100310000008E7003F31E608031D9129E7080319AB
:10032000002A0310650D183EA1002030A300031819
:10033000A30A2108E6002308E70085006608840078
:100340000008E80001310008E9003F316808840036
:100350006908850004310008A0002036013903191E
:10036000FE290310650D183E840020308500031817
:10037000850A0008E60001310008E7003F31670800
:10038000E9006608E8006808840069088500013112
:10039000053FA300043FEA002308EB00680884003F
:1003A0006908850001310008EC00680884006908CC
:1003B0008500003100086C02031DF82968088400DC
:1003C000690885000131800102306807A100003012
:1003D000693DA3002108EC002308ED0020308500D2
:1003E0004A3084002308EF002108EE006520FE2932
:1003F00068088400690885000131800AE50A7929C6
:100400008031C02BE70121000C1520000C19671466
:1004100021008C1520008C19E7146708A100080042
:10042000650884006608850003318008031DF02AF2
:100430002030E8002C30E700670884006808850059
:100440000008E90069084D0203192C2A6908CD004B
:100450000130A1002E2A2E2A0030A100A108031984
:10046000EF2A0222A1080319862A74302300910082
:10047000003092000B088B13951715140000000034
:10048000891B8B1713087F390319852A2000E70081
:10049000230011082000E800230012082000E900D2
:1004A0006708111E512A23009A00200068082300C3
:1004B000910020006908230092000B088B13951708
:1004C000151400000000891B8B17130D140D7F39C4
:1004D0000319852A2000E700230011082000E80006
:1004E000230012082000E9006708111E752A230066
:1004F0009A0020006808230091002000690823006A
:100500009200910A0319920A3A2A20004C1DA12A4E
:1005100065088400660885000530803F6508840012
:100520006608850001318001650884006608850041
:100530004F30823F650884006608850004318014CE
:10054000EF2A4C1CBC2A650884006608850005302B
:10055000803F6508840066088500013180016508D8
:100560008400660885004F30823F65088400660875
:10057000850004318014EF2ACC1CD72A650884003A
:10058000660885000530803F6508840066088500A0
:100590000131800165088400660885004F30823F84
:1005A000650884006608850004318014EF2A650818
:1005B00084006608850000318001650884006608B3
:1005C000850001318001650884006608850043309C
:1005D000823F6508840066088500043180142B2B57
:1005E00065088400660885000331000B222B022277
:1005F000A108031D1A2B311A042B7C30111EFE2A70
:1006000023009A00182B200031125F30111E062B98
:1006100023009A00200065088400660885000331E5
:10062000800165088400660885000431801023007D
:10063000202B200031162F30111E1C2B23009A0076
:100640002C2B200065088400660885000331000813
:10065000023C031D2B2B230080312000C52B6A3068
:100660002100990022001D159D1723009F111930AC
:100670009B00A6309E0090309D001E302000AC00F4
:10068000AD01AE01AF01B0013110B1103111B111A6
:10069000B2012D30B600B701CD01CE013030CF0010
:1006A000311223008C018E012200920191019401EC
:1006B000930142302000B3004430B4005230B50002
:1006C0004C114C10CC14D001D1017430D200D301A4
:1006D0005410D41420308500353084000130A3003C
:1006E000123080002308813FD701D8013030D90073
:1006F000D9005B10DB10203085003C3084000130D5
:10070000A3004C3080002308813FDE01DF0143302D
:10071000E000E1016210E2102030850043308400E7
:100720000030A3009E3080002308813F2030E60087
:100730003030E5007A202030E6003E30E5007A20B7
:100740000B138B138B1BA12B2100911622009D11E3
:1007500035302000980099012100111420009601E5
:10076000970196010230AD00C0308B0421000E12BB
:1007700022000E1221008E1222008E1220007729F4
:100780002030E6003E30E500102AB118B110BF2B32
:02079000630004
:020000040001F9
:02E0000000001E
:04E0280000000000F4
:04000E008439FF1E14
:00000001FF
;PIC16F1823
;CRC=34D9  CREATED="12-nov-20 17:02"
