:06000000803171290000AF
:08000800830180312000200873
:10001000A4002108A5002208A6002308A700850146
:1000200091308400001C1628111826288501913073
:100030008400801E1D28911A4C282408A000250841
:10004000A1002608A2002708A3000900A90B2C285C
:10005000AA0A0230A9002D142A08053C031D3328E2
:10006000AA01AB0AAD142B083C3C031D3A28AB0196
:10007000AC0A2D152C083C3C0319AC019601CF307D
:1000800097002C309600111080311D280131000896
:100090008A003F3F82000800911E4C282300190867
:1000A0002000AF00911280311D2803102E0D113E4B
:1000B0008400203085000318850A5A0880005B08F8
:1000C000813FAE0A8031CC2921008E1108302200F8
:1000D0008E06200063088400640885007830803F25
:1000E000481008006308A1006408A3002108E50087
:1000F0002308E600E701670803198228013A03197B
:100100008F2891284B084A0203198C284A08CB00F3
:100110004A08A10091288F283030A10091284B086F
:10012000A100660885006508840021088000630836
:1001300084006408850000310008E5006508E600D9
:10014000E7016708023C031CAE2866086702031D2E
:10015000AC280130A100B028E70AA1280030A10096
:10016000A1080319BC2863088400640885000131D4
:1001700080014811CD28C7286308840064088500E1
:1001800001310008053C0318C7284815CD2863082D
:100190008400640885000131800A0800DA01DA0170
:1001A0005A08093C031C572903105A0D113E8400BC
:1001B000203085000318850A0008DB0001310008A3
:1001C000DC003F31DB08031DE828DC080319572950
:1001D00003105A0D113EA1002030A3000318A30AFA
:1001E0002108DB002308DC0085005B088400000890
:1001F000DD0001310008DE003F315D0884005E084B
:10020000850004310008A000203601390319552962
:1002100003105A0D113E8400203085000318850A12
:100220000008DB0001310008DC003F315C08DE0023
:100230005B08DD005D0884005E0885000131053F34
:10024000A300043FDF002308E0005D0884005E088F
:10025000850001310008E1005D0884005E0885002A
:10026000003100086102031D4F295D0884005E080B
:1002700085000131800102305D07A10000305E3D44
:10028000A3002108E1002308E200203085003F3070
:1002900084002308E4002108E300462055295D0876
:1002A00084005E0885000131800ADA0AD028803196
:1002B000EC292030DB002830DA005A0884005B0883
:1002C00085000008DC00DC0803196A290130A10060
:1002D0006C296C290030A100A10803196F29803115
:1002E000F0296A302100990022001D159D17230076
:1002F0009F1119309B00A6309E0090309D001E304B
:100300002000A800A901AA01AB01AC012D10AD107D
:100310002D11AD11AE012D30AF00B001C90130304B
:10032000CA00CB0023008C018E01220092019101B2
:100330009401930142302000C5004430C600523081
:10034000C70048114810C810CC01CD017430CE0050
:10035000CF015010D014203085003130840000309F
:10036000A300723080002308813FD301D401743090
:10037000D5006230D6005710D714203085003830B1
:1003800084000030A300643080002308813F2030C7
:10039000DB003330DA0055280B138B138B1BCD2970
:1003A0002100911622009D113530200098009901FE
:1003B0002100111420009601970196010230A90036
:1003C000C0308B0421008E1222008E1221008E126A
:1003D00022008E122000CE28AD1CF029AD10592924
:0403E000EB296300A2
:020000040001F9
:02E0000000001E
:04E0280000000000F4
:04000E008439FF1E14
:00000001FF
;PIC16F1823
;CRC=64A8  CREATED="11-nov-20 23:27"
