:0600000080316E290000B2
:08000800830180312000200873
:10001000A4002108A5002208A6002308A700850146
:1000200091308400001C1628111826288501913073
:100030008400801E1D28911A4C282408A000250841
:10004000A1002608A2002708A3000900A90B2C285C
:10005000AA0A0230A9002D142A08053C031D3328E2
:10006000AA01AB0AAD142B083C3C031D3A28AB0196
:10007000AC0A2D152C083C3C0319AC019601CF307D
:1000800097002C309600111080311D280131000896
:100090008A003F3F82000800911E4C282300190867
:1000A0002000AF00B001911280311D28E501E5016B
:1000B0006508093C031C7F280310650D283E840059
:1000C000203085000318850A0008E6000131000889
:1000D000E7003F31E608031D7D28E708031D7D2862
:1000E0000310650D283E8400203085000318850A22
:1000F000630880006408813F7F28E50A5828803122
:10010000AD298031D0292100AD1423082000A3009F
:10011000210022088400200023088500120021000D
:10012000A9001200AA001200AB001200AC000008E7
:10013000AD00AE012E080A3C0318A2288E12220040
:100140008E16210027082E020318AA288E122200DC
:100150008E1221002E08A70023082000A3002100F2
:100160002208840020002308850021002408800044
:100170002508813F2608823F2708833F2808843FBF
:1001800020000800E301E3016308093C031C6C291B
:100190000310630D283E8400203085000318850A73
:1001A0000008E40001310008E5003F31E408031DC8
:1001B000DC28E50803196C290310630D283EA10013
:1001C0002030A3000318A30A2108E4002308E50057
:1001D0008500640884000008E60001310008E7009B
:1001E0003F31660884006708850004310008A000DC
:1001F0002036013903196A290310630D283E840053
:10020000203085000318850A0008E4000131000849
:10021000E5003F316508E7006408E6006708A300D1
:1002200066082100A200200023082100A30020303E
:10023000A5004830A40007302000A10021002308B9
:1002400085002208840000082000A0002100250865
:100250008500240884002000200880002100A40AD2
:100260000319A50AA20A0319A30A2000A10B1E293B
:10027000203085004D308400013FA300003F210065
:10028000A000200023082100A100200068086902C6
:10029000031D5729E90120308500503084002030AB
:1002A0002100A3004830A200200046205829E90A76
:1002B0006608840067088500680880006908813F37
:1002C0006A08823F6B08833F6C08843F6D08853F56
:1002D0006E08863FE30AC4288031D1296A302100A4
:1002E000990022001D159D1723009F1119309B00B6
:1002F000A6309E0090309D001E302000A800A9016D
:10030000AA01AB01AC012D10AD102D11AD11AE0144
:100310003030AF00B001C501C60123008C018E0151
:10032000220092019101940193012000DC01DD0182
:100330006130DE006630DE006010E01420308500A1
:10034000413084000030A300833080002308813FC7
:100350002030E4003C30E30056280B138B138B1B3A
:10036000AE292100911622009D1135302000980001
:100370009901210011142000960197019601023085
:10038000A900C0308B0421008E1222008E122100A1
:100390008E1222008E122000AD1CD129AD108128B2
:0603A000C228CC29630015
:020000040001F9
:02E0000000001E
:04E0280000000000F4
:04000E008439FF1E14
:00000001FF
;PIC16F1823
;CRC=216D  CREATED="10-nov-20 16:52"
