:060000008031452A0000DA
:08000800830180312000200873
:10001000A4002108A5002208A6002308A7002300A9
:1000200011082000A800230012082000A9002300C6
:1000300013082000AA00230014082000AB0085014B
:1000400091308400001C262811183E282408A000A6
:100050002508A1002608A2002708A30028082300DD
:100060009100200029082300920020002A08230084
:10007000930020002B08230094000900AD0B4428B6
:10008000AE0A0230AD0031142E08053C031D4B288A
:10009000AE01AF0AB1142F083C3C031D5228AF013A
:1000A000B00A311530083C3C0319B0019601CF303D
:1000B00097002C309600111080312628013100085D
:1000C0008A003F3F820008004529D2273A10A53A0E
:1000D0000000D401D4015408093C031C7C280310FF
:1000E000540D143E8400203085000318850A8001D9
:1000F00001318001D40A6B2880318A2AD601D601C9
:100100005608093C031CA7280310560D143E840012
:10011000203085000318850A0008D7000131000847
:10012000D8003F31D708031DA528D808031DA528EE
:100130000310560D143E8400203085000318850AF4
:10014000540880005508813FA728D60A8028080057
:100150006508A10164020318B0286408A000BC2847
:10016000A0010830E600E40DA00D65082002031888
:10017000A000A10DE60BB328080061084F3C031D49
:10018000CE2821000C1222000C1221008C12220019
:100190008C1600302000A100A229DE286108433C13
:1001A000031DDE2821008C1222008C1221000C126B
:1001B00022000C1600302000A100A2296430230088
:1001C000910000309200031006302000E2000B087E
:1001D0008B1323009517151400000000891B8B1743
:1001E00003181B2913087F392000E300230011089E
:1001F0002000E400230012082000E5006308111E1F
:10020000FF2823009A0020006408230091002000AA
:100210006508230092000B088B1395171514000036
:100220000000891B8B172000E20B172919292300D6
:100230001B293C292300130D140D7F392000E300F6
:10024000230011082000E400230012082000E5002C
:100250006308111E292923009A0020006408230046
:1002600091002000650823009200910A0319920A68
:1002700003102000E20BE7281430E2001B30E300FB
:100280006208E4006430E500A8202008E2002108AC
:100290003030031D5229E31C5C29E3195C29631AE1
:1002A00020305529E31163126314A1072108111EA0
:1002B000572923009A0020006208E4000A30E50074
:1002C000A8202008E20021083030031D6D29E31921
:1002D0007429631C7429631A2030A1072108111E98
:1002E0006F2923009A0020003030E2076208111EB7
:1002F000772923009A0014302000E2000130E30047
:100300006208230091009513151413082000E400DF
:1003100064086307E5000B08A0008B136208230044
:1003200091002000650823009300951315155530A2
:100330009600AA309600951495189C291511200056
:1003400020088B04080021008E12203022008E0627
:1003500020000800D401D4015408093C031C432A9E
:100360000310540D143E8400203085000318850AC4
:100370000008D50001310008D6003F31D508031D23
:10038000C429D6080319432A0310540D143EA100B2
:100390002030A3000318A30A2108D5002308D600A3
:1003A0008500550884000008D70001310008D800F6
:1003B0003F31570884005808850003310008A00029
:1003C000203601390319432A0310540D143E8400CA
:1003D000203085000318850A0008D5000131000887
:1003E000D6003F315608D8005508D7005808A3005A
:1003F0005708E1002308E2002030E4003930E30030
:100400000630A10062088500610884000008A00091
:10041000640885006308840020088000E30A03194B
:10042000E40AE10A0319E20AA10B022A203085003E
:100430003D308400013FA300003FDF002308E000BF
:1004400059085A02031D302A203085003F308400AD
:100450005B08E1005E20A108031D5C14DA01312A6B
:10046000DA0A5708840058088500590880005A089D
:10047000813F5B08823F5C08833F5D08843F5E08E4
:10048000853FD40AAC298031B52A6A302100990011
:1004900022001D159D1723009F1119309B00A630C7
:1004A0009E0090309D001E302000AC00AD01AE01DA
:1004B000AF01B0013110B1103111B11123008C0125
:1004C0008E012200920191019401930106302000D7
:1004D000C800C9015730CA004B10CB14203085002A
:1004E0002C3084000030A300BD3080002308813F01
:1004F0000330CE00CF014F30D0005110D114203046
:100500008500323084000130A300A330800023082E
:10051000813F69282030D5002E30D4007E20203045
:10052000D5002830D4007E200B138B138B1B952A0B
:1005300022009D11353020009800990121001114EE
:1005400020009601970196010230AD00C0308B0467
:1005500021008E1222008E1221008E1222008E1295
:0E0560002000B11CB52AB110AA29B12A6300EF
:020000040001F9
:02E0000000001E
:04E0280000000000F4
:04000E008439FF1E14
:00000001FF
;PIC16F1823
;CRC=ED8C  CREATED="09-nov-20 23:11"
