:0600000080315C2A0000C3
:08000800830180312000200873
:10001000A4002108A5002208A6002308A700850146
:1000200091308400001C1628111826288501913073
:100030008400801E1D28911A4C282408A000250841
:10004000A1002608A2002708A3000900A90B2C285C
:10005000AA0A0230A9002D142A08053C031D3328E2
:10006000AA01AB0AAD142B083C3C031D3A28AB0196
:10007000AC0A2D152C083C3C0319AC019601CF307D
:1000800097002C309600111080311D280131000896
:100090008A003F3F82000800911E4C282300190867
:1000A0002000AF00911280311D28DE01DE015E08C4
:1000B000093C031C682803105E0D103E84002030AC
:1000C00085000318850A800101318001DE0A572866
:1000D0008031C02AE001E0016008093C031C93283C
:1000E0000310600D103E8400203085000318850A3F
:1000F0000008E10001310008E2003F31E108031D82
:100100009128E208031D91280310600D103E840021
:10011000203085000318850A5E0880005F08813F53
:100120009328E00A6C288031C52A8031E82A210012
:1001300023082000A30021002208840020002308B7
:1001400085000008A000013FA100023FA200033F7C
:10015000A30020082100A400200021082100A50000
:10016000200022082100A600200023082100A7006B
:100170002000C40AC4080319C128C40121002710A3
:1001800020000030A1000800210023082000A30067
:100190002100220884002000230885000008A00018
:1001A000013FA100023FA200033FA300200821005D
:1001B000A400200021082100A50020002208210021
:1001C000A600200023082100A700A7102714260856
:1001D0004F3C031DF4280C1222000C1221008C123B
:1001E00022008C16032921002608433C031D012907
:1001F0008C1222008C1221000C1222000C160329F2
:10020000210027102200210023082000A300210044
:100210002208840020002308850021002408800093
:100220002508813F2608823F2708833F20000800D9
:10023000210023082000A3002100220884002000C0
:10024000230885000008A000013FA100023FA20092
:10025000033FA30020082100A40020002108210062
:10026000A500200022082100A6002000230821006C
:10027000A7008E12203022008E06210023082000C5
:10028000A30021002208840020002308850021000B
:10029000240880002508813F2608823F2708833FE5
:1002A00020000800210023082000A30021002208CC
:1002B00084002000230885000008A000013FA10061
:1002C000023FA200033FA30020082100A400200059
:1002D00021082100A500200022082100A6002000FE
:1002E00023082100A70020002F08450203199329A5
:1002F0002F08C5002F08423C031D86292E152F0804
:1003000021002602031D0030942920002F08443CC0
:10031000031D92292E112F0821002602031D0030F3
:1003200094292000A629210023082000A3002100F1
:100330002208840020002308850021002408800072
:100340002508813F2608823F2708833F20000800B8
:10035000DE01DE015E08093C031C5A2A03105E0D13
:10036000103E8400203085000318850A0008DF0055
:1003700001310008E0003F31DF08031DC229E00819
:1003800003195A2A03105E0D103EA1002030A3006D
:100390000318A30A2108DF002308E00085005F0896
:1003A00084000008E10001310008E2003F316108EB
:1003B00084006208850003310008A000203601395E
:1003C0000319582A03105E0D103E8400203085006A
:1003D0000318850A0008DF0001310008E0003F3102
:1003E0006008E2005F08E1006208A30061082100E4
:1003F000A000200023082100A1002030A3004330EA
:10040000A20008302000A10021002108850020085A
:10041000840000082000A000210023088500220895
:1004200084002000200880002100A20A0319A30AEA
:10043000A00A0319A10A2000A10B042A203085007C
:1004400047308400013FA300003FEB002308EC008D
:1004500063086402031D432AE4016108A1006208E5
:10046000A30061082100A000200062082100A10073
:10047000203085004B3084002108A3002008A20012
:1004800020004620442AE40A6108840062088500AE
:10049000630880006408813F6508823F6608833FE7
:1004A0006708843F6808853F6908863F6A08873F78
:1004B000DE0AAA298031E92A6A3021009900220047
:1004C0001D159D1723009F1119309B00A6309E001B
:1004D00090309D001E302000A800A901AA01AB01A8
:1004E000AC012D10AD102D11AD11AE013030AF00AB
:1004F000C401C50123008C018E01220092019101EB
:10050000940193012000C601C7013030C800491092
:10051000C914203085002A3084000130A3005230F5
:1005200080002308813F0530CE00CF015730D00036
:100530005110D11420308500323084000030A300E7
:10054000C43080002308813F20308500343084008F
:100550000030A300973080002308813F0230D6008E
:10056000D7014F30D8005910D914203085003A30C7
:1005700084000130A300183080002308813F5528F3
:100580002030DF002630DE006A280B138B138B1B14
:10059000C62A2100911622009D11353020009800B6
:1005A0009901210011142000960197019601023053
:1005B000A900C0308B0421008E1222008E1221006F
:1005C0008E1222008E122000AD1CE92AAD10952853
:0605D000A829E42A6300E3
:020000040001F9
:02E0000000001E
:04E0280000000000F4
:04000E008439FF1E14
:00000001FF
;PIC16F1823
;CRC=BC9B  CREATED="10-nov-20 11:07"
