:060000008031292D0000F3
:08000800830180312000200873
:10001000A4002108A5002208A6002308A7002300A9
:1000200011082000A800230012082000A9002300C6
:1000300013082000AA00230014082000AB0085014B
:1000400091308400001C2628111845288501913024
:100050008400801E2D28911A6B282408A0002508F2
:10006000A1002608A2002708A30028082300910069
:10007000200029082300920020002A082300930072
:1000800020002B08230094000900AD0B4B28AE0A7A
:100090000230AD0031142E08053C031D5228AE017C
:1000A000AF0AB1142F083C3C031D5928AF01B00A18
:1000B000311530083C3C0319B0019601CF30970050
:1000C0002C309600111080312D28013100088A0053
:1000D0003F3F82000800911E8028911E6D2823005A
:1000E0001D082000AC00230019082000A100AC1C52
:1000F0007D2823001D121D1620002108CC000708B2
:10010000911280312D280A3AE536F037A0392F10A8
:10011000E337ED3AEE34E330E3306F0500008A391F
:10012000E536A030EC34ED326E3A2E0500018A310E
:10013000EF366137E4372031EC3771170A008A3126
:10014000EF366137E4372032E5396236EF382E0575
:1001500000003C1EBC2620356110E539F430203704
:100160006110F037F334E3306F1F3E1F203E0A006A
:100170004D10E6346D105F0500014D10E337ED3092
:100180006E326F1DA012E3060A003C1EBC225229EB
:10019000CF10A026201DA012631F3E1F000165394D
:1001A000F237F22FED30F82FF434ED32EF3AF40657
:1001B0000A000D052E17AE24CE24C3244F172E1788
:1001C0000D0500010A26EF37F0060A006636E13316
:1001D000731DA012F512F51275162000E336641097
:1001E000A531BB060A000310320D2D3E84002030DD
:1001F00085000318850A6D0880006E08813FB20AE9
:1002000008002030850059308400000803191629A1
:100210000130A100A001A00B0B29A10B0A294A3033
:10022000A000A00B11291429800B08290800EF0158
:100230002100A301A201A101A00120006E08EF008E
:10024000EF0803193E2921002208A3002108A2007B
:100250002008A100A00120006D08ED0A2100A400E3
:100260002408230091009513151413082100A004FD
:100270000130A90020000121EF03202921002008DE
:100280002000A000210021082000A1002100220858
:100290002000A200210023082000A30008000B0872
:1002A0008B1323009517151400000000891B8B1772
:1002B00013087F3903199D292000ED002300110840
:1002C0002000EE00230012082000EF006D08111E30
:1002D000672923009A0020006E0823009100200067
:1002E0006F08230092000B088B139517151400005C
:1002F0000000891B8B17130D140D7F3903199D29DD
:100300002000ED00230011082000EE002300120859
:100310002000EF006D08111E8B2923009A00200099
:100320006E082300910020006F0823009200910ABC
:100330000319920A20004F292300200008000B080F
:100340008B1323009517151400000000891B8B17D1
:100350000318D42913087F392100A10023001108B4
:100360002100A200230012082100A3002108200080
:10037000111EB82923009A002100220823009100B1
:1003800021002308230092000B088B1395171514E6
:1003900000000000891B8B172100A00BD029D22957
:1003A0002300D429F9292300130D140D7F392100CE
:1003B000A100230011082100A2002300120821003F
:1003C000A30021082000111EE32923009A00210028
:1003D0002208230091002100230823009200910AA3
:1003E0000319920A03102100A00BF729F929200014
:1003F0009F2920000800210023082000A1012100DE
:1004000022020318082A22082000A0001A2A21002C
:100410002000A00108302100A400A20D2000A00DA2
:1004200021002308200020020318A000A10D2100B4
:10043000A40B0D2A20000800210821002008A2009A
:100440006430A3002000FB2120082100A000200030
:1004500021083030031D352A2100A11C412AA11991
:10046000412A211A2030392A20002100A11121120D
:1004700021142000A1072108111E3C2A23009A0004
:1004800021002008A2000A30A3002000FB21200840
:100490002100A000200021083030031D572A210030
:1004A000A1195E2A211C5E2A211A20302000A107F2
:1004B0002108111E592A23009A0021003030A0077C
:1004C00020082000111E622A23009A002000080044
:1004D0006108EE006E08A10008002100A401A4013B
:1004E00020006F08210024020318882A55302407B1
:1004F0008400203085000318850A20088000210828
:10050000A0002208A1002308A200A301A40A702AC7
:100510002000EF080319BB2A6E08EE0A2100A9008B
:100520002000EF0355306F0784002030850003184A
:10053000850A00082100AA000B082000A0008B13E8
:10054000210029082300910021002A08230093009C
:100550009513151555309600AA30960095149518E8
:10056000AF2A1511200020088B0401302100A900BA
:1005700020000121892A0800ED0121000C1520002E
:100580000C196D1421000E1520000E19ED146D08C4
:10059000A1002108EB005F0BCE2AD22A5F08023CA3
:1005A000031D272B68222108ED0062086D06031940
:1005B000DF2A6D08E2000130A100E12AE12A0030C3
:1005C000A100A1080319272BE11DE82AE111010070
:1005D000611DF72A0530B300B4010230E00083301A
:1005E000230091000030920020004F211F2B611C3E
:1005F000062B0530B300B4010230E0008F30230039
:1006000091000030920020004F211F2BE11C142B81
:10061000B301B4010230E0009730230091000030B4
:10062000920020004F211F2BB301B4010130E000E4
:100630009F30230091000030920020004F2160087D
:100640005F02031D252B3710262B3714DD2B5F0887
:10065000033C031DDA2BEB08031D722BEA08031D74
:100660003D2B6008DF003710EA01A930230091001C
:100670000030920020004F21712B6A08DF003710F4
:10068000EA013C14E9010130EE00EF002100A30172
:10069000A201A101200060082100A00020006D221D
:1006A00064302100A9002000012168222108ED000A
:1006B000EE010130EF002100A301A201A101200001
:1006C00021082100A00020006D2264302100A90033
:1006D00020000121B830230091000030920020005A
:1006E0004F21CC2B60086B02031DA02B6B08EA0086
:1006F00037103B306B078400203085000318850AD3
:100700000008ED00BD30230091000030920003107E
:100710000B302100A00020009F216D08111E8E2BA0
:1007200023009A000D302000111E942B23009A0004
:100730000A302000111E9A2B23009A00CB2B200098
:100740003B306B078400203085000318850A0008C1
:10075000ED00C530230091000030920003100D30F1
:100760002100A00020009F216D08111EB52B230041
:100770009A003E302000111EBB2B23009A003E3011
:100780002000111EC12B23009A003E302000111EB4
:10079000C72B23009A002000E90A6908143C0318BB
:1007A000D92BCF30230091000030920020004F2140
:1007B0000100DD2BDF08031DDD2B80316E2E60086C
:1007C000023C031D032C21008C1222008C120230EB
:1007D0002100A600FA30A900200001212100A60B6B
:1007E000EA2B0C1222000C1602302100A600FA306F
:1007F000A900200001212100A60BF72B8E12220058
:100800008E16212C200021000C1222000C12023026
:100810002100A600FA30A900200001212100A60B2A
:100820000A2C8C1222008C1602302100A600FA300D
:10083000A900200001212100A60B172C8E122200F6
:100840008E1203302000DF0008004C082100A700B2
:10085000A8012808023C031C3F2C373028078400DD
:10086000203085000318850A27080002031D3D2C4F
:1008700001302000A100422C2100A80A292C0030C0
:100880002000A100A1080319592C4C08E300210005
:100890002608003A20000319512C013A0319552C5F
:1008A000582CCC016308A1005B2C6308A1005B2CD1
:1008B0005B2C0030A10008002100A60120002524A7
:1008C0002108E400E4080319692CE5016111702C8A
:1008D0006F2C6508043C03186F2C6115702CE50A19
:1008E000080001302100A600200025242108DA009C
:1008F0005A08423C031D7E2CE114882C5A08443CC3
:10090000031D842CE110882C5A08523C031D882CAE
:10091000080021008E1420008E1C922C6110E6012C
:10092000992C982C6608043C0318982C6114992C77
:10093000E60A080068080E3C031CAD2C031DA42C1D
:1009400067080F3C031CAD2C21008E1122008E1570
:100950002000E70A0319E80AB52C21008E112200B5
:100960008E112000E801E7013C100800ED01ED01C7
:1009700032086D020318272D03106D0D2D3EA100C6
:100980002030A3000318A30A21082100A0002000A2
:1009900023082100A1008500200884000008A2008F
:1009A00001310008A3003F3122088400230885009C
:1009B0000431000801390319242D031020006D0DA6
:1009C0002D3E8400203085000318850A0008210090
:1009D000A00001310008A1003F312108A300200838
:1009E000A20022088400230885000131023F200074
:1009F000A300013F2100A400200023082100A5003E
:100A0000220884002308850001310008A60022087E
:100A1000840023088500003100082602031D1E2DD6
:100A200022088400230885000131800120308500E0
:100A30005430840020006520252D210022088400E8
:100A4000230885000131800A2000ED0AB82C80318E
:100A50006F2E6A30210099002000AC0123009F1105
:100A600019309B00A6309E0090309D002000AD0103
:100A7000AE01AF01B0013110B1103111B111B201AD
:100A80002D30CC000230DF000130E000FF30E2000A
:100A9000E301E401E501E601E801E701E901EA011A
:100AA000EB0123008C018E0122009201910194013F
:100AB000930142302000D7004430D8005230D90092
:100AC0004530DB004130DC004630DD005430DE00D4
:100AD000220092019101940193010B131D159D17A2
:100AE0000B138B138B1B712D2100911622009D116E
:100AF0003530200098009901210011142000960142
:100B0000970196010230AD00C0308B046110E110F6
:100B10006111B301B4013710203085001530840015
:100B20000330A300DF3080002308813FBD01BE01F8
:100B30004114203085001F3084000430A3005C3055
:100B400080002308813FC201C30146142030850084
:100B5000243084000430A300713080002308813FDA
:100B6000C701C8014B1420308500293084000430AF
:100B7000A300893080002308813FB801B9013C14EB
:100B8000203085001A3084000430A3009A308000A1
:100B90002308813F2030EE002730ED00F320203085
:100BA000EE001330ED00F3200130ED00EE001721D0
:100BB0002008EC00ED010130EE0017212008EC00C8
:100BC0006C0FE32DE52D6C08E10021000E122200D0
:100BD0000E1221008E1222008E12D93023009100B5
:100BE0000030920020004F21EC016C08053C031CF2
:100BF0000A2E21000E12103022008E0621008E12C5
:100C0000203022008E0696302100A900200001210C
:100C1000EC0AF52DE2302300910000309200200014
:100C20004F21B11C752EB110003061180130ED005C
:100C30000030E1180130EE00003061190130EF00A2
:100C4000E6302300910000309200031007302100AD
:100C5000A00020009F216D082100A0001B30A100F2
:100C600020001C226E082100A0001B30A1002000E3
:100C70001C226F082100A0001B30A10020001C22B4
:100C80002C30111E412E23009A0020302000111E0E
:100C9000472E23009A00EE3091000030920003109E
:100CA00004302100A00020009F214C08111E562E68
:100CB00023009A003B302000111E5C2E23009A0076
:100CC0000D302000111E622E23009A000A302000F1
:100CD000111E682E23009A002000BC2AB62C210089
:0E0CE0000E12103022008E062000112E63002E
:020000040001F9
:04000E008439FF1A18
:00000001FF
;PIC16F1823
;CRC=623E  CREATED="01-dez-20 17:09"
