:060000008031012D00001B
:08000800830180312000200873
:10001000A4002108A5002208A6002308A7002300A9
:1000200011082000A800230012082000A9002300C6
:1000300013082000AA00230014082000AB0085014B
:1000400091308400001C2628111845288501913024
:100050008400801E2D28911A6B282408A0002508F2
:10006000A1002608A2002708A30028082300910069
:10007000200029082300920020002A082300930072
:1000800020002B08230094000900AC0B4B28AD0A7C
:100090000230AC0030142D08053C031D5228AD0180
:1000A000AE0AB0142E083C3C031D5928AE01AF0A1D
:1000B00030152F083C3C0319AF019601CF30970053
:1000C0002C309600111080312D28013100088A0053
:1000D0003F3F82000800911E6B2823001908200072
:1000E000CB00911280312D280A3AE536F037A0393D
:1000F0002F10E337ED3AEE34E330E330EF060A0039
:100100008A39E536A030EC34ED326E3AAE060A009C
:100110008A31EF366137E4372031EC3771170D053E
:1001200000018A31EF366137E4372032E539623633
:10013000EF38AE060A003C1EBC2620356110E539BA
:10014000F43020376110F037F334E3306F1F3E1F77
:10015000203E0D0500014D10E6346D10DF060A004B
:100160004D10E337ED306E326F1DA012E3060A002A
:100170003C1EBC225229CF10A026201DA012631FB6
:100180003E1F00016539F237F22FED30F82FF434BD
:10019000ED32EF3AF4060A000D052E17AE24CE24F8
:1001A000C3244F172E170D0500010A26EF37F0065E
:1001B0000A006636E133731DA012F512F512F5063A
:1001C0000A000310310D2D3E8400203085000318F5
:1001D000850A6A0880006B08813FB10A0800203058
:1001E0008500593084000008031904290130A1005A
:1001F000A001A00BF928A10BF8284A30A000A00B01
:10020000FF280229800BF6280800EC012100A30139
:10021000A201A101A00120006B08EC00EC08031969
:100220002B2921002208A3002108A2002008A100F8
:10023000A00120006A08EA0AED006D082300910081
:100240009513151413082100A0040130A900200003
:10025000EF20EC030E29210020082000A00021003F
:1002600021082000A100210022082000A200210076
:1002700023082000A30008000B088B132300951708
:10028000151400000000891B8B1713087F39031910
:100290008A292000EA00230011082000EB00230037
:1002A00012082000EC006A08111E542923009A004D
:1002B00020006B082300910020006C0823009200AE
:1002C0000B088B139517151400000000891B8B1762
:1002D000130D140D7F3903198A292000EA00230029
:1002E00011082000EB00230012082000EC006A082F
:1002F000111E782923009A0020006B08230091002A
:1003000020006C0823009200910A0319920A200031
:100310003C292300200008000B088B1323009517AD
:10032000151400000000891B8B170318C12913083E
:100330007F392100A000230011082100A100230023
:1003400012082100A20020082000111EA529230068
:100350009A00210021082300910021002208230097
:1003600092000B088B139517151400000000891BD1
:100370008B172000ED0BBD29BF292300C129E329DC
:100380002300130D140D7F392100A0002300110854
:100390002100A100230012082100A2002008200053
:1003A000111ED02923009A0021002108230091006A
:1003B0002100220823009200910A0319920A0310D7
:1003C0002000ED0B8C290800210020082000A1014D
:1003D0006F020318EE296F08A000FF29A001083062
:1003E0002100A1002000EF0DA00D21002008200019
:1003F00020020318A000A10D2100A10BF22920006A
:10040000080021086D08EF0064302100A0002000E2
:10041000E4212008ED0021083030031D162AEE1CCF
:10042000202AEE19202A6E1A2030192AEE116E1297
:100430006E14A1072108111E1B2A23009A00200018
:100440006D08EF000A302100A0002000E421200800
:10045000ED0021083030031D332AEE193A2A6E1CB4
:100460003A2A6E1A2030A1072108111E352A2300CE
:100470009A0020003030ED076D08111E3D2A230040
:100480009A00200008005E08EB006B08A10008003D
:10049000ED01ED016C086D020318622A54306D07FE
:1004A0008400203085000318850A21002008800080
:1004B0002108A0002208A1002308A200A301200017
:1004C000ED0A4A2AEC0803198F2A6B08EB0AEE00A2
:1004D000EC0354306C078400203085000318850A33
:1004E0000008EF000B08A0008B136E08230091009A
:1004F00020006F08230093009513151555309600C2
:10050000AA30960095149518832A1511200020080A
:100510008B0401302100A9002000EF20622A08008E
:10052000EA0121000C1520000C196A1421000E1597
:1005300020000E19EA146A08A1002108E8005C0BEB
:10054000A22AA62A5C08023C031DFB2A432221089A
:10055000EA005F086A060319B32A6A08DF0001305F
:10056000A100B52AB52A0030A100A1080319FB2A71
:10057000DE1DBC2ADE1101005E1DCB2A0530B20053
:10058000B3010230DD00743023009100003092008E
:1005900020003C21F32A5E1CDA2A0530B200B301A8
:1005A0000230DD00803023009100003092002000F6
:1005B0003C21F32ADE1CE82AB201B3010230DD003F
:1005C0008830230091000030920020003C21F32A63
:1005D000B201B3010130DD00913023009100003001
:1005E000920020003C215D085C02031DF92A3610B0
:1005F000FA2A3614AF2B5C08033C031DAC2BE80829
:10060000031D462BE708031D112B5D08DC00361087
:10061000E7019B30230091000030920020003C2134
:10062000452B6708DC003610E7013B14E60101307A
:10063000EB00EC002100A301A201A10120005D0854
:100640002100A0002000482264302100A9002000E1
:10065000EF2043222108EA00EB010130EC002100E9
:10066000A301A201A101200021082100A000200077
:10067000482264302100A9002000EF20AB30230085
:1006800091000030920020003C219E2B5D08680202
:10069000031D732B6808E7003610383068078400A4
:1006A000203085000318850A0008EA00B0302300D6
:1006B00091000030920003100B302000ED008C21DF
:1006C0006A08111E612B23009A000D302000111EB4
:1006D000672B23009A000A302000111E6D2B230087
:1006E0009A009D2B20003830680784002030850058
:1006F0000318850A0008EA00B83023009100003092
:10070000920003100D302000ED008C216A08111EAC
:10071000872B23009A003E302000111E8D2B2300D2
:100720009A003E302000111E932B23009A003E3089
:100730002000111E992B23009A002000E60A66086B
:10074000143C0318AB2BC230230091000030920000
:1007500020003C210100AF2BDC08031DAF2B8031B2
:10076000212E5D08023C031DD52B21008C12220096
:100770008C1202302100A200FA30A9002000EF20E4
:100780002100A20BBC2B0C1222000C1602302100FF
:10079000A200FA30A9002000EF202100A20BC92BF3
:1007A0008E1222008E16F32B200021000C12220044
:1007B0000C1202302100A200FA30A9002000EF2024
:1007C0002100A20BDC2B8C1222008C16023021009F
:1007D000A200FA30A9002000EF202100A20BE92B93
:1007E0008E1222008E1203302000DC0008004B081D
:1007F0002100A300A4012408023C031C112C353065
:1008000024078400203085000318850A230800028D
:10081000031D0F2C01302000A100142C2100A40A7C
:10082000FB2B00302000A100A10803192B2C4B0842
:10083000E00021002208003A20000319232C013A8D
:100840000319272C2A2CCB016008A1002D2C60084D
:10085000A1002D2C2D2C0030A10008002100A201A8
:100860002000F7232108FF00EC00DF0803193E2CCD
:100870002000E2015E11462C452CEC0020006208AD
:10088000093C0318452C5E15462CE20A080001308D
:100890002100A2002000F7232108CC004C08423C94
:1008A000031D542CDE145E2C4C08443C031D5A2CB2
:1008B000DE105E2C4C08523C031D5E2C080021000B
:1008C0008E1420008E1C682C5E10FF01722C702C80
:1008D000EC005F08093C0318712C20005E14722C98
:1008E000EC00DF0A200008006508013C031C872C8F
:1008F000031D7E2C64082B3C031C872C21008E11C9
:1009000022008E152000E40A0319E50A8F2C21002D
:100910008E1122008E112000E501E4013B10080039
:10092000EA01EA0131086A020318FF2C03106A0D7C
:100930002D3EA1002030A3000318A30A2108EB00DC
:100940002308EC0085006B0884000008ED000131ED
:100950000008EE003F316D0884006E088500043108
:10096000000801390319FD2C03106A0D2D3E840087
:10097000203085000318850A0008EB0001310008CB
:10098000EC003F316C08EE006B08ED006D08840050
:100990006E0885000131023FA300013F2100A00045
:1009A000200023082100A10020006D0884006E08AB
:1009B0008500013100082100A20020006D0884009C
:1009C0006E0885000031000821002202031DF62C6C
:1009D00020006D0884006E08850001318001203000
:1009E0008500503084006520FD2C210020006D081A
:1009F00084006E0885000131800AEA0A922C803159
:100A0000222E6A302100990022001D159D17230017
:100A10009F1119309B00A6309E0090309D00200051
:100A2000AC01AD01AE01AF013010B0103011B0110A
:100A3000B1012D30CB000230DC000130DD00FF3091
:100A4000DF00E001FF01E201FF01E501E401E60151
:100A5000E701E80123008C018E012200920191013F
:100A60009401930142302000D5004430D60052302A
:100A7000D7004530D8004130D9004630DA00543034
:100A8000DB005E10DE105E11B201B30136102030C3
:100A90008500143084000330A300B13080002308A7
:100AA000813FBC01BD014014203085001E30840010
:100AB0000430A3002E3080002308813FC101C20111
:100AC000451420308500233084000430A3004730D3
:100AD00080002308813FC601C7014A1420308500E9
:100AE000283084000430A3005F3080002308813F59
:100AF000B701B8013B142030850019308400043060
:100B0000A300743080002308813F2030EB002130A7
:100B1000EA00E1202030EB001230EA00E120203032
:100B2000EB001730EA00E1200130EA00EB0005217C
:100B30002008E900690F9D2D9F2D6908DC00EA015E
:100B40000130EB0005212008E900690FA82DAA2D2E
:100B50006908DE0021000E1222000E1221008E1202
:100B600022008E12CC302300910000309200200031
:100B70003C21E9016908053C031CCF2D21000E1220
:100B8000103022008E0621008E12203022008E06A8
:100B900096302100A9002000EF20E90ABA2D0B139E
:100BA0008B138B1BD02D2100911622009D11353007
:100BB000200098009901210011142000960197014E
:100BC00096010230AC00C0308B04D5302300910078
:100BD0000030920020003C21B01C222EB0100030CA
:100BE0005E180130EA000030DE180130EB00003002
:100BF0005E190130EC00D9302300910000309200E2
:100C0000031007302000ED008C216A08ED001B3036
:100C1000EE0001226B08ED001B30EE0001226C0893
:100C2000ED001B30EE0001220D30111E152E2300A9
:100C30009A000A302000111E1B2E23009A0020006B
:080C4000902A902CEC2D6300BA
:020000040001F9
:04000E008439FF1A18
:00000001FF
;PIC16F1823
;CRC=26A1  CREATED="24-nov-20 13:23"
