:060000008031F22C00002B
:08000800830180312000200873
:10001000A4002108A5002208A6002308A7002300A9
:1000200011082000A800230012082000A9002300C6
:1000300013082000AA00230014082000AB0085014B
:1000400091308400001C2628111845288501913024
:100050008400801E2D28911A6B282408A0002508F2
:10006000A1002608A2002708A30028082300910069
:10007000200029082300920020002A082300930072
:1000800020002B08230094000900AD0B4B28AE0A7A
:100090000230AD0031142E08053C031D5228AE017C
:1000A000AF0AB1142F083C3C031D5928AF01B00A18
:1000B000311530083C3C0319B0019601CF30970050
:1000C0002C309600111080312D28013100088A0053
:1000D0003F3F82000800911E6B2823001908200072
:1000E000B600911280312D28E133F530723261373C
:1000F000E437A026203E0D0500004D10E6346D10BB
:10010000DF060A004D106131F2346E326F10AF0617
:100110000A004D10E63263346137E437202E0D05B6
:1001200000016539F237F22FED30F82FF434ED325B
:10013000EF3AF4060A006636E133731DA012F51299
:10014000F512F5060A000310320D183E8400203027
:1001500085000318850A650880006608813FB20A99
:100160000800203085006330840000080319C62889
:100170000130A100A001A00BBB28A10BBA284A3076
:10018000A000A00BC128C428800BB8280800E701F4
:10019000EB01EA01E901E8016608E700E708031955
:1001A000EA286A08EB006908EA006808E900E80143
:1001B0006508E50AEC006C082300910095131514FE
:1001C00013082000E80401302100B3002000B12012
:1001D000E703CE286808A0006908A1006A08A20009
:1001E0006B08A3008031832D0B088B132300951718
:1001F000151400000000891B8B1703182829130809
:100200007F392000E900230011082000EA002300C4
:1002100012082000EB006908111E0C2923009A0027
:1002200020006A082300910020006B082300920040
:100230000B088B139517151400000000891B8B17F2
:100240002000E80B242926292300282949292300F6
:10025000130D140D7F392000E90023001108200040
:10026000EA00230012082000EB006908111E36295D
:1002700023009A0020006A082300910020006B08E8
:1002800023009200910A0319920A03102000E80B40
:10029000F4288031D82D6B08A1016A020318532974
:1002A0006A08A0005F29A0010830EC00EA0DA00D4B
:1002B0006B0820020318A000A10DEC0B56290800C2
:1002C00021086808EA006430EB004B212008E800B0
:1002D00021083030031D7329E91C7D29E9197D2986
:1002E000691A20307629E91169126914A1072108D9
:1002F000111E782923009A0020006808EA000A30BD
:10030000EB004B212008E80021083030031D8E2926
:10031000E9199529691C9529691A2030A107210836
:10032000111E902923009A0020003030E807680849
:10033000111E982923009A00200008002100270898
:10034000A80028082000A10008002100AE01AE018D
:1003500029082E020318BE295F302E0784002030A2
:1003600085000318850A2A0880002B08AA002C089B
:10037000AB002D08AC00AD01AE0AA829A9080319ED
:10038000EE292808A80AB300A9035F3029078400D2
:10039000203085000318850A0008B4000B082000EF
:1003A000A0008B13210033082300910021003408A2
:1003B000230093009513151555309600AA3096002A
:1003C00095149518E1291511200020088B0401309F
:1003D0002100B3002000B1202100BE292000080028
:1003E0000B088B1323009517151400000000891BC0
:1003F0008B1713087F3903193E2A2000E7002300DA
:1004000011082000E800230012082000E900670816
:10041000111E082A23009A0020006808230091007A
:1004200020006908230092000B088B139517151400
:1004300000000000891B8B17130D140D7F39031961
:100440003E2A2000E700230011082000E8002300D6
:1004500012082000E9006708111E2C2A23009A00C8
:100460002000680823009100200069082300920002
:10047000910A0319920A2000F029230020000800A5
:10048000E70121000C1520000C19671421000E153E
:1004900020000E19E7146708A1002108C7006508AD
:1004A0008400660885000331000B572A602A65081E
:1004B00084006608850003310008023C031D2D2BD3
:1004C0004208E70067082100A70020009E212108BC
:1004D000E800430868060319732A6808C30001305E
:1004E000A100752A752A0030A100A10803192D2B3F
:1004F0006608A3006508E7002308E8006608A30073
:1005000065088400230885000008E900013100081F
:10051000EA0001310008EB0001310008EC00013174
:100520000008ED0001310008EE0001310008EF0085
:100530003A3169082100A00020006A082100A100CA
:1005400020006B082100A20020006C082100A300FD
:1005500020006D082100A40020006E082100A500E5
:1005600020006F082100A6002000421DBF2A053090
:100570002100A000A1010230A200032B2000421C98
:10058000C92A05302100A000A1010230A200032BDE
:100590002000C21CD22A2100A001A1010230A20029
:1005A000032B2000C21DFE2AC21101302100A80029
:1005B000A900AD01AC01AB012208AA002000A521D1
:1005C00032302100B3002000B12042082100A700F2
:1005D00020009E2121082100A700A8010130A900C8
:1005E000AD01AC01AB012708AA002000A5213230E3
:1005F0002100B3002000B1200100042B2100A00144
:10060000A1010130A2002000210022082302031DC5
:100610000B2BA4100C2BA414A0302000A100A201CD
:100620002208A3002108E9002308EA000730A100FE
:100630006A088500690884000008A0006808850031
:100640006708840020088000E70A0319E80AE90A1D
:100650000319EA0AA10B182B942B6508840066087D
:10066000850003310008033C031D8C2BC708031DC4
:100670005A2BC608031D442B743023009100003010
:1006800092002000F021592B65088400660885003F
:100690004608833F650884006608850004318010A1
:1006A000C601C5017D30230091000030920020007A
:1006B000F021732B470B662B4708C60082302300BE
:1006C0009100003092002000F021732B4708023C7B
:1006D000031D732B4708C6008930230091000030AA
:1006E00092002000F021C50A45080A3C03188B2B14
:1006F000913023009100003092002000F021650825
:10070000840066088500033180016508840066085E
:10071000850003318001942B6508840066088500FC
:1007200003318008031D942B8031F82D6E0884005E
:100730006F0885000031000BB62B6E0884006F082F
:1007400085000330813F21000C1222000C1264301E
:100750002100B3002000B12021008C1222008C1651
:1007600021008E1222008E12D62B20006E088400EB
:100770006F08850000310008023C031DD62B6E086F
:1007800084006F0885000330813F21008C12220015
:100790008C1264302100B3002000B12021000C1223
:1007A00022000C1621000E1222000E162000080056
:1007B00036082100A300A4012408023C031CF22BEC
:1007C000133024078400203085000318850A23088D
:1007D0000002031DF02B01302000A100F52B2100A9
:1007E000A40ADC2B00302000A100A10803190C2C66
:1007F0003608C40021002208003A20000319042C06
:10080000013A0319082C0B2CB6014408A1000E2C48
:100810004408A1000E2C0E2C0030A10008006E0828
:10082000A1006F08A3006E082100A00020006F083F
:100830002100A100A2012000D82321002108850069
:10084000200884002000210880006E0884006F08C2
:100850008500003180080319362C6E0884006F086B
:100860008500013180014211472C412C6E08840023
:100870006F08850001310008043C0318412C421523
:10088000472C6E0884006F0885000131800A08003B
:1008900001302100A2002000D8232108B70037082A
:1008A000423C031D5E2CC2146E0884006F08850054
:1008B000003137080002031D0030712C3708443C1A
:1008C000031D6D2CC2106E0884006F088500003176
:1008D00037080002031D0030712C3708523C031901
:1008E000C215080021008E1420008E1C792C4210A5
:1008F0007A2C42140800E501E5013208650203186C
:10090000F02C0310650D183EA1002030A300031841
:10091000A30A2108E6002308E70085006608840092
:100920000008E80001310008E9003F316808840050
:100930006908850004310008A00020360139031938
:10094000EE2C0310650D183E84002030850003183E
:10095000850A0008E60001310008E7003F3167081A
:10096000E9006608E800680884006908850001312C
:10097000053FA300043FEA002308EB006808840059
:100980006908850001310008EC00680884006908E6
:100990008500003100086C02031DE82C6808840003
:1009A000690885000131800102306807A10000302C
:1009B000693DA3002108EC002308ED0020308500EC
:1009C0004A3084002308EF002108EE006520EE2C59
:1009D00068088400690885000131800AE50A7D2CD9
:1009E0008031F92D6A302100990022001D159D17D4
:1009F00023009F1119309B00A6309E0090309D006F
:100A00001E302000AC00AD01AE01AF01B0013110CD
:100A1000B1103111B111B2012D30B600FF30C30059
:100A2000C401C501C601C70123008C018E0122004B
:100A3000920191019401930142302000B3004430AF
:100A4000B4005230B5004210C2104211C801C901B1
:100A50000130CA00CB004C10CC10203085002D3066
:100A600084000330A300963080002308813FCF012B
:100A7000D0017430D100D2015310D314203085003E
:100A8000343084000430A3000F3080002308813FFD
:100A9000D601D7013030D800D8005A10DA142030EF
:100AA00085003B3084000430A300483080002308D8
:100AB000813FDD01DE017430DF005830E00061105D
:100AC000E11420308500423084000430A3007230ED
:100AD00080002308813F2030E6003630E500A32067
:100AE0002030E6002F30E500A3202030E6003D3026
:100AF000E500A3202030E6002830E500A3200130E7
:100B0000E500E600C7282008E400640F882D8A2D40
:100B10006408CA000B138B138B1B8B2D21009116BD
:100B200022009D11353020009800990121001114F8
:100B300020009601970196010230AD00C0308B0471
:100B400021000E1222000E1221008E1222008E129F
:100B50002000E4016408053C031CBF2D21000E1297
:100B6000103022008E0621008E12203022008E06C8
:100B700096302100B3002000B120E40AAA2DB11C58
:100B8000FF2DB110003042180130E5000030C218CE
:100B90000130E600003042190130E7009B302300AD
:100BA000910000309200031007302000E800F42884
:100BB0006508E8001B30E90060216608E8001B308A
:100BC000E90060216708E8001B30E90060210D3072
:100BD000111EE82D23009A000A302000111EEE2D70
:100BE00023009A0020302000E6002830E500402A4B
:100BF0007B2C21000E12103022008E062000BF2D0B
:020C000063008F
:020000040001F9
:04E00000FF00FF001E
:02E02A00FF00F5
:04000E008439FF1E14
:00000001FF
;PIC16F1823
;CRC=B0AB  CREATED="17-nov-20 16:58"
