:060000008031CA2C000053
:08000800830180312000200873
:10001000A4002108A5002208A6002308A7002300A9
:1000200011082000A800230012082000A9002300C6
:1000300013082000AA00230014082000AB0085014B
:1000400091308400001C2628111845288501913024
:100050008400801E2D28911A6B282408A0002508F2
:10006000A1002608A2002708A30028082300910069
:10007000200029082300920020002A082300930072
:1000800020002B08230094000900AD0B4B28AE0A7A
:100090000230AD0031142E08053C031D5228AE017C
:1000A000AF0AB1142F083C3C031D5928AF01B00A18
:1000B000311530083C3C0319B0019601CF30970050
:1000C0002C309600111080312D28013100088A0053
:1000D0003F3F82000800911E6B2823001908200072
:1000E000BD00911280312D280A3AE536F037A0394B
:1000F0002F10E337ED3AEE34E330E330EF060A0039
:100100008A39E536A030EC34ED326E3AAE060A009C
:100110008A31EF366137E4372031EC3771170D053E
:100120000000E133F53072326137E437A026203E1B
:100130000D0500014D10E6346D10DF060A004D106C
:100140006131F2346E326F10AF060A004D10E632A4
:1001500063346137E437202E0D0500016539F2372D
:10016000F22FED30F82FF434ED32EF3AF4060A00B6
:100170000D056131F2346E326F10F6306C3B75361E
:1001800061172E170D0500010A26EF37F0060A0049
:100190006636E133731DA012F512F512F5060A005A
:1001A0000310320D1F3E8400203085000318850A9D
:1001B000630880006408813FB20A0800203085008F
:1001C0005130840000080319F3280130A100A00178
:1001D000A00BE828A10BE7284A30A000A00BEE28CE
:1001E000F128800BE5280800E501E901E801E701B5
:1001F000E6016408E500E508031917296808E90025
:100200006708E8006608E700E6016308E30AEA0019
:100210006A08230091009513151413082000E604C2
:1002200001302100A1002000DE20E503FB28660844
:10023000A0006708A1006808A2006908A3000800E0
:100240000B088B1323009517151400000000891B61
:100250008B1713087F3903196E292000E50023004E
:1002600011082000E600230012082000E7006508BE
:10027000111E382923009A002000660823009100EF
:1002800020006708230092000B088B1395171514A4
:1002900000000000891B8B17130D140D7F39031903
:1002A0006E292000E500230011082000E60023004D
:1002B00012082000E7006508111E5C2923009A003F
:1002C00020006608230091002000670823009200A8
:1002D000910A0319920A2000202923002000080017
:1002E0000B088B1323009517151400000000891BC1
:1002F0008B170318A42913087F392000E700230077
:1003000011082000E800230012082000E900670817
:10031000111E882923009A002000680823009100FC
:1003200020006908230092000B088B139517151401
:1003300000000000891B8B172000E60BA029A229D2
:100340002300A429C5292300130D140D7F39200093
:10035000E700230011082000E80023001208200015
:10036000E9006708111EB22923009A0020006808DE
:10037000230091002000690823009200910A0319CC
:10038000920A03102000E60B70298031C82D6908FD
:10039000A10168020318CF296808A000DB29A00189
:1003A0000830EA00E80DA00D690820020318A0003B
:1003B000A10DEA0BD229080021086608E800643084
:1003C000E900C7212008E60021083030031DEF298D
:1003D000E71CF929E719F929671A2030F229E711F2
:1003E00067126714A1072108111EF42923009A003F
:1003F00020006608E8000A30E900C7212008E6006E
:1004000021083030031D0A2AE719112A671C112A16
:10041000671A2030A1072108111E0C2A23009A0018
:1004200020003030E6076608111E142A23009A00C7
:10043000200008006708E8006808A1000800EC0137
:10044000EC0167086C020318372A4D306C078400F2
:10045000203085000318850A680880006908E800D4
:100460006A08E9006B08EA00EB01EC0A212AE708B8
:100470000319692A6608E60A2100A1002000E703A3
:100480004D3067078400203085000318850A000876
:100490002100A2000B082000A0008B1321002108DE
:1004A00023009100210022082300930095131515C5
:1004B00055309600AA309600951495185D2A1511AE
:1004C000200020088B0401302100A1002000DE2044
:1004D000372A0800E50121000C1520000C196514CD
:1004E00021000E1520000E19E5146508A100210851
:1004F000CC0063088400640885000331000B812A66
:100500008A2A630884006408850003310008023CDD
:10051000031DFD2A4708E5006508E7001A222108A7
:10052000E6004808660603199B2A6608C8000130E1
:10053000A1009D2A9D2A0030A100A1080319FD2ACF
:10054000C71DA42AC7110100471DB32A0530B300F7
:10055000B4010230B50074302300910000309200E5
:1005600020002021D42A471CC22A0530B300B40140
:100570000230B5008030230091000030920020004E
:100580002021D42AC71CD02AB301B4010230B500FF
:100590008830230091000030920020002021D42ACE
:1005A000B301B4010130B50035083602031DDA2A63
:1005B000B710FC2AB7140130E600E700EB01EA01AE
:1005C000E9013508E8001F2264302100A100200065
:1005D000DE204708E7001A222108E500E601013085
:1005E000E700EB01EA01E9012108E8001F2264307D
:1005F0002100A1002000DE20592B6308840064083C
:10060000850003310008033C031D512BCC08031D5A
:100610002A2BCB08031D142B9130230091000030AE
:10062000920020002021292B6308840064088500A3
:100630004B08833F63088400640885000431801000
:10064000CB01CA019A3023009100003092002000B3
:100650002021432B4C0B362B4C08CB009F30230022
:1006600091000030920020002021432B4C08023CD6
:10067000031D432B4C08CB00A63023009100003013
:10068000920020002021CA0A4A08143C0318502B6B
:10069000AE302300910000309200200020210100A4
:1006A000592B630884006408850003318008031D0A
:1006B000592B8031E82D6C0884006D0885000031CD
:1006C000000B7B2B6C0884006D0885000330813F94
:1006D00021000C1222000C1264302100A100200025
:1006E000DE2021008C1222008C1621008E122200A6
:1006F0008E129B2B20006C0884006D088500003151
:100700000008023C031D9B2B6C0884006D088500CB
:100710000330813F21008C1222008C1264302100B2
:10072000A1002000DE2021000C1222000C16210066
:100730000E1222000E16200008003D082100A10024
:10074000A2012208023C031CB72B1A3022078400A6
:10075000203085000318850A21080002031DB52BEF
:1007600001302000A100BA2B2100A20AA12B0030E9
:100770002000A100A1080319D12B3D08C9002100C8
:100780002008003A20000319C92B013A0319CD2B88
:10079000D02BBD014908A100D32B4908A100D32BC0
:1007A000D32B0030A10008006C08A1006D08A30045
:1007B0006C08EE006D08EF002100A00120009D23D1
:1007C0006F0885006E088400210880006C08840092
:1007D0006D088500003180080319F72B6C08840030
:1007E0006D088500013180014711082C022C6C082E
:1007F00084006D08850001310008093C0318022CB3
:100800004715082C6C0884006D0885000131800AAA
:10081000080001302100A00020009D232108BE0017
:100820003E08423C031D1F2CC7146C0884006D0851
:10083000850000313E080002031D0030322C3E08C6
:10084000443C031D2E2CC7106C0884006D088500E5
:1008500000313E080002031D0030322C3E08523C9D
:100860000319C715080021008E1420008E1C412C8E
:1008700047106C0884006D08850001318001522CFE
:100880004C2C6C0884006D08850001310008093C7F
:1008900003184C2C4714522C6C0884006D088500FA
:1008A0000131800A0800E301E30132086302031802
:1008B000C82C0310630D1F3EA1002030A3000318B5
:1008C000A30A2108E4002308E500850064088400E9
:1008D0000008E60001310008E7003F3166088400A7
:1008E0006708850004310008A0002036013903198B
:1008F000C62C0310630D1F3E8400203085000318B2
:10090000850A0008E40001310008E5003F31650870
:10091000E7006408E6006608840067088500013186
:10092000053FA300043FE8002308E90066088400AF
:100930006708850001310008EA006608840067083E
:100940008500003100086A02031DC02C660884007F
:10095000670885000131800102306607A100003080
:10096000673DA3002108EA002308EB002030850042
:10097000483084002308ED002108EC006520C62CD7
:1009800066088400670885000131800AE30A552C57
:100990008031E92D6A302100990022001D159D1734
:1009A00023009F1119309B00A6309E0090309D00BF
:1009B0001E302000AC00AD01AE01AF01B00131101E
:1009C000B1103111B111B2012D30BD00FF30C8009E
:1009D000C901CA01CB01CC0123008C018E01220088
:1009E000920191019401930142302000BA004430F9
:1009F000BB005230BC004710C7104711B301B4010F
:100A00000130B500B6003710B7102030850018301F
:100A100084000330A3005B3080002308813FCD01B8
:100A2000CE017430CF00D0015110D1142030850098
:100A3000323084000330A300D43080002308813F8B
:100A4000D401D5013030D600D6005810D81420304B
:100A50008500393084000430A30009308000230869
:100A6000813FDB01DC017430DD005830DE005F10B7
:100A7000DF1420308500403084000430A300333080
:100A800080002308813F2030E4003430E300D02090
:100A90002030E4002D30E300D0202030E4003B3053
:100AA000E300D0202030E4001330E300D0200130F8
:100AB000E300E400F4202008E200620F602D622DC4
:100AC0006208B500E3010130E400F4202008E200F0
:100AD000620F6B2D6D2D6208C70021000E122200DF
:100AE0000E1221008E1222008E12B83023009100C7
:100AF0000030920020002021E2016208053C031C26
:100B0000922D21000E12103022008E0621008E122E
:100B1000203022008E0696302100A1002000DE2029
:100B2000E20A7D2D0B138B138B1B932D2100911645
:100B300022009D11353020009800990121001114E8
:100B400020009601970196010230AD00C0308B0461
:100B5000C430230091000030920020002021B11CFD
:100B6000EF2DB110003047180130E3000030C718F6
:100B70000130E400003047190130E500C83023009F
:100B8000910000309200031007302000E600702929
:100B90006308E6001B30E700DC216408E6001B3038
:100BA000E700DC216508E6001B30E700DC210D30A2
:100BB000111ED82D23009A000A302000111EDE2DB0
:100BC00023009A0020302000E4001330E3006A2A5A
:100BD000532C21000E12103022008E062000AF2D63
:020BE0006300B0
:020000040001F9
:04E00000FF00FF001E
:02E02A00FF00F5
:04000E008439FF1A18
:00000001FF
;PIC16F1823
;CRC=E39F  CREATED="19-nov-20 17:01"
