:060000008031492C0000D4
:08000800830180312000200873
:10001000A4002108A5002208A6002308A7002300A9
:1000200011082000A800230012082000A9002300C6
:1000300013082000AA00230014082000AB0085014B
:1000400091308400001C2628111845288501913024
:100050008400801E2D28911A6B282408A0002508F2
:10006000A1002608A2002708A30028082300910069
:10007000200029082300920020002A082300930072
:1000800020002B08230094000900AD0B4B28AE0A7A
:100090000230AD0031142E08053C031D5228AE017C
:1000A000AF0AB1142F083C3C031D5928AF01B00A18
:1000B000311530083C3C0319B0019601CF30970050
:1000C0002C309600111080312D28013100088A0053
:1000D0003F3F82000800911E6B2823001908200072
:1000E000B600911280312D28E133F530723261373C
:1000F000E437A026203E0D0500004D10E6346D10BB
:10010000DF060A004D106131F2346E326F10AF0617
:100110000A004D10E63263346137E437202E0D05B6
:1001200000016539F237F22FED30F82FF434ED325B
:10013000EF3AF4060A000D056131F2346E326F10A9
:10014000F6306C3B753661172E170D0500010A2637
:10015000EF37F0060A006636E133731DA012F51280
:10016000F512F5060A000310320D183E8400203007
:1001700085000318850A630880006408813FB20A7D
:100180000800203085004E30840000080319D6286E
:100190000130A100A001A00BCB28A10BCA284A3036
:1001A000A000A00BD128D428800BC82808000B0879
:1001B0008B1323009517151400000000891B8B1763
:1001C00013087F39031925292000E50023001108B1
:1001D0002000E600230012082000E7006508111E39
:1001E000EF2823009A0020006608230091002000D9
:1001F0006708230092000B088B1395171514000055
:100200000000891B8B17130D140D7F390319252945
:100210002000E500230011082000E600230012085A
:100220002000E7006508111E132923009A00200012
:100230006608230091002000670823009200910ABD
:100240000319920A2000D7282300200008000B0879
:100250008B1323009517151400000000891B8B17C2
:1002600003185B2913087F392000E70023001108D9
:100270002000E800230012082000E9006708111E92
:100280003F2923009A0020006808230091002000E5
:100290006908230092000B088B13951715140000B2
:1002A0000000891B8B172000E60B572959292300D2
:1002B0005B297C292300130D140D7F392000E700F2
:1002C000230011082000E800230012082000E900A4
:1002D0006708111E692923009A002000680823007E
:1002E00091002000690823009200910A0319920AE4
:1002F00003102000E60B27298031372D6908A10162
:100300006802031886296808A0009229A001083015
:10031000EA00E80DA00D690820020318A000A10D55
:10032000EA0B8929080021086608E8006430E90022
:100330007E212008E60021083030031DA629E71C95
:10034000B029E719B029671A2030A929E7116712E7
:100350006714A1072108111EAB2923009A00200071
:100360006608E8000A30E9007E212008E60021083E
:100370003030031DC129E719C829671CC829671A2D
:100380002030A1072108111EC32923009A00200054
:100390003030E6076608111ECB2923009A002000A2
:1003A0000800E50121000C1520000C19651421003E
:1003B0000E1520000E19E5146508A1002108C500DE
:1003C00063088400640885000331000BE829F129E3
:1003D000630884006408850003310008023C031DA3
:1003E000952A4008E5006508E7006708E800680806
:1003F000A1002108E600410866060319052A6608DF
:10040000C1000130A100072A072A0030A100A1087D
:100410000319952A6408A3006308E5002308E60091
:100420006408A30063088400230885000008E7002F
:1004300001310008E80001310008E900013100083D
:10044000EA0001310008EB0001310008EC00013145
:100450000008ED003A3167082100A000200068087C
:100460002100A100200069082100A20020006A08E4
:100470002100A30020006B082100A40020006C08CC
:100480002100A50020006D082100A6002000C01D4D
:100490004B2AC0110100401D552A05302100A00043
:1004A000A1010230A2006D2A2000401C5F2A053005
:1004B0002100A000A1010230A2006D2A2000C01C72
:1004C000682A2100A001A1010230A2006D2A2000AB
:1004D0002100A001A1010130A20022082302031D76
:1004E000732AA410742AA414A0302000A100A20131
:1004F0002208A3002108E7002308E8000730A10034
:1005000068088500670884000008A0006608850068
:100510006508840020088000E50A0319E60AE70A56
:100520000319E80AA10B802AF12A630884006408F1
:10053000850003310008033C031DE92AC508031D9B
:10054000C22AC408031DAC2A743023009100003075
:1005500092002000D720C12A630884006408850027
:100560004408833F630884006408850004318010D8
:10057000C401C3017D3023009100003092002000AF
:10058000D720DB2A450BCE2A4508C4008230230041
:100590009100003092002000D720DB2A4508023C61
:1005A000031DDB2A4508C400893023009100003078
:1005B00092002000D720C30A4308143C0318E82AFD
:1005C000913023009100003092002000D7200100DC
:1005D000F12A630884006408850003318008031D44
:1005E000F12A8031572D6C0884006D088500003198
:1005F000000B122B6C0884006D0885000330813FCE
:1006000021000C1222000C1264302000EE00C120E8
:1006100021008C1222008C1621008E1222008E12D4
:10062000312B20006C0884006D0885000031000823
:10063000023C031D312B6C0884006D0885000330DB
:10064000813F21008C1222008C1264302000EE00C9
:10065000C12021000C1222000C1621000E122200D3
:100660000E162000080036082100A100A201220871
:10067000023C031C4D2B13302207840020308500E0
:100680000318850A21080002031D4B2B01302000AE
:10069000A100502B2100A20A372B00302000A1001E
:1006A000A1080319672B3608C20021002008003A70
:1006B000200003195F2B013A0319632B662BB60147
:1006C0004208A100692B4208A100692B692B003068
:1006D000A10008006C08A1006D08A3006C08EE00E2
:1006E0006D08EF002100A001200033236F08850072
:1006F0006E088400210880006C0884006D08850065
:100700000031800803198D2B6C0884006D0885006A
:100710000131800140119E2B982B6C0884006D08DC
:10072000850001310008043C0318982B40159E2BCE
:100730006C0884006D0885000131800A08000130D2
:100740002100A000200033232108B7003708423CD5
:10075000031DB52BC0146C0884006D0885000031A2
:1007600037080002031D0030C82B3708443C031D26
:10077000C42BC0106C0884006D0885000031370858
:100780000002031D0030C82B3708523C0319C01566
:10079000080021008E1420008E1CD02B4010D12B7D
:1007A00040140800E301E301320863020318472CF8
:1007B0000310630D183EA1002030A3000318A30A04
:1007C0002108E4002308E50085006408840000088F
:1007D000E60001310008E7003F3166088400670841
:1007E000850004310008A000203601390319452C8A
:1007F0000310630D183E8400203085000318850A1D
:100800000008E40001310008E5003F316508E70019
:100810006408E60066088400670885000131053F2A
:10082000A300043FE8002308E90066088400670885
:10083000850001310008EA00660884006708850029
:10084000003100086A02031D3F2C66088400670817
:1008500085000131800102306607A1000030673D4C
:10086000A3002108EA002308EB002030850048306F
:1008700084002308ED002108EC006520452C660863
:100880008400670885000131800AE30AD42B803197
:10089000582D6A302100990022001D159D17230054
:1008A0009F1119309B00A6309E0090309D001E3095
:1008B0002000AC00AD01AE01AF01B0013110B110AC
:1008C0003111B111B2012D30B600FF30C100C201AB
:1008D000C301C401C50123008C018E0122009201D5
:1008E00091019401930142302000B3004430B400E0
:1008F0005230B5004010C0104011C601C701013090
:10090000C800C9004A10CA10203085002B3084006E
:100910000230A300F33080002308813FCD01CE01D7
:100920007430CF00D0015110D11420308500323006
:1009300084000330A3006A3080002308813FD40183
:10094000D5013030D600D6005810D814203085009C
:10095000393084000330A3009F3080002308813F9A
:10096000DB01DC017430DD005830DE005F10DF1485
:1009700020308500403084000330A300C93080005F
:100980002308813F2030E4003430E300B3202030DE
:10099000E4003B30E300B3202030E4002630E300E5
:1009A000B32021000C1222000C1264302000EE0053
:1009B000C12021008C1222008C1621000E12220070
:1009C0000E1221008E1222008E129B302300910005
:1009D000003092002000D720E2016208053C031C91
:1009E000012D21000E12103022008E0621008E12E1
:1009F000203022008E0696302000EE00C120E20A50
:100A0000ED2C0B138B138B1B022D21009116220052
:100A10009D1135302000980099012100111420000B
:100A20009601970196010230AD00C0308B04A730CB
:100A300023009100003092002000D720B11C5E2DD1
:100A4000B110003040180130E3000030C018013010
:100A5000E400003040190130E500AB302300910084
:100A600000309200031007302000E60027296308B9
:100A7000E6001B30E70093216408E6001B30E70026
:100A800093216508E6001B30E70093210D30111E0D
:100A9000472D23009A000A302000111E4D2D2300FF
:100AA0009A0020302000E4002630E300D129D22B28
:100AB00021000E12103022008E0620001E2D630031
:020000040001F9
:04E00000FF00FF001E
:02E02A00FF00F5
:04000E008439FF1E14
:00000001FF
;PIC16F1823
;CRC=FA86  CREATED="18-nov-20 15:35"
